{
  "contractName": "PodcastContract",
  "abi": [
    {
      "anonymous": false,
      "inputs": [
        {
          "indexed": true,
          "internalType": "uint256",
          "name": "id",
          "type": "uint256"
        },
        {
          "indexed": true,
          "internalType": "address",
          "name": "supporter",
          "type": "address"
        },
        {
          "indexed": true,
          "internalType": "uint256",
          "name": "amount",
          "type": "uint256"
        }
      ],
      "name": "PodcastSupported",
      "type": "event"
    },
    {
      "anonymous": false,
      "inputs": [
        {
          "indexed": true,
          "internalType": "uint256",
          "name": "id",
          "type": "uint256"
        },
        {
          "indexed": true,
          "internalType": "address",
          "name": "owner",
          "type": "address"
        },
        {
          "indexed": false,
          "internalType": "string",
          "name": "ipfsHash",
          "type": "string"
        }
      ],
      "name": "PodcastUploaded",
      "type": "event"
    },
    {
      "inputs": [
        {
          "internalType": "address",
          "name": "",
          "type": "address"
        }
      ],
      "name": "supportCount",
      "outputs": [
        {
          "internalType": "uint256",
          "name": "",
          "type": "uint256"
        }
      ],
      "stateMutability": "view",
      "type": "function",
      "constant": true
    },
    {
      "inputs": [
        {
          "internalType": "string",
          "name": "_ipfsHash",
          "type": "string"
        },
        {
          "internalType": "uint256",
          "name": "_amount",
          "type": "uint256"
        }
      ],
      "name": "uploadPodcast",
      "outputs": [],
      "stateMutability": "nonpayable",
      "type": "function"
    },
    {
      "inputs": [
        {
          "internalType": "uint256",
          "name": "_id",
          "type": "uint256"
        }
      ],
      "name": "supportPodcast",
      "outputs": [],
      "stateMutability": "payable",
      "type": "function",
      "payable": true
    },
    {
      "inputs": [],
      "name": "retrieveAllPodcasts",
      "outputs": [
        {
          "components": [
            {
              "internalType": "string",
              "name": "ipfsHash",
              "type": "string"
            },
            {
              "internalType": "address",
              "name": "owner",
              "type": "address"
            },
            {
              "internalType": "uint256",
              "name": "amount",
              "type": "uint256"
            },
            {
              "internalType": "address[]",
              "name": "supporters",
              "type": "address[]"
            },
            {
              "internalType": "uint256",
              "name": "totalSupport",
              "type": "uint256"
            }
          ],
          "internalType": "struct PodcastContract.Podcast[]",
          "name": "",
          "type": "tuple[]"
        }
      ],
      "stateMutability": "view",
      "type": "function",
      "constant": true
    },
    {
      "inputs": [
        {
          "internalType": "address",
          "name": "_addr",
          "type": "address"
        }
      ],
      "name": "getUserPodcasts",
      "outputs": [
        {
          "internalType": "uint256[]",
          "name": "",
          "type": "uint256[]"
        }
      ],
      "stateMutability": "view",
      "type": "function",
      "constant": true
    },
    {
      "inputs": [
        {
          "internalType": "uint256",
          "name": "_id",
          "type": "uint256"
        }
      ],
      "name": "getPodcastInfo",
      "outputs": [
        {
          "components": [
            {
              "internalType": "string",
              "name": "ipfsHash",
              "type": "string"
            },
            {
              "internalType": "address",
              "name": "owner",
              "type": "address"
            },
            {
              "internalType": "uint256",
              "name": "amount",
              "type": "uint256"
            },
            {
              "internalType": "address[]",
              "name": "supporters",
              "type": "address[]"
            },
            {
              "internalType": "uint256",
              "name": "totalSupport",
              "type": "uint256"
            }
          ],
          "internalType": "struct PodcastContract.Podcast",
          "name": "",
          "type": "tuple"
        }
      ],
      "stateMutability": "view",
      "type": "function",
      "constant": true
    }
  ],
  "bytecode": "0x608060405234801561001057600080fd5b506119dc806100206000396000f3fe6080604052600436106100555760003560e01c8063037d3bc11461005a5780630c1fa1ef1461008557806362549454146100c25780636842cfa9146100de578063af2888bb1461011b578063c57ea76d14610144575b600080fd5b34801561006657600080fd5b5061006f610181565b60405161007c9190610ea6565b60405180910390f35b34801561009157600080fd5b506100ac60048036038101906100a79190610f08565b61036a565b6040516100b99190610f44565b60405180910390f35b6100dc60048036038101906100d79190610f8b565b610382565b005b3480156100ea57600080fd5b5061010560048036038101906101009190610f08565b610604565b6040516101129190611067565b60405180910390f35b34801561012757600080fd5b50610142600480360381019061013d91906111be565b61069b565b005b34801561015057600080fd5b5061016b60048036038101906101669190610f8b565b61093f565b6040516101789190611297565b60405180910390f35b60606001805480602002602001604051908101604052809291908181526020016000905b8282101561036157838290600052602060002090600502016040518060a00160405290816000820180546101d8906112e8565b80601f0160208091040260200160405190810160405280929190818152602001828054610204906112e8565b80156102515780601f1061022657610100808354040283529160200191610251565b820191906000526020600020905b81548152906001019060200180831161023457829003601f168201915b505050505081526020016001820160009054906101000a900473ffffffffffffffffffffffffffffffffffffffff1673ffffffffffffffffffffffffffffffffffffffff1673ffffffffffffffffffffffffffffffffffffffff168152602001600282015481526020016003820180548060200260200160405190810160405280929190818152602001828054801561033f57602002820191906000526020600020905b8160009054906101000a900473ffffffffffffffffffffffffffffffffffffffff1673ffffffffffffffffffffffffffffffffffffffff16815260200190600101908083116102f5575b50505050508152602001600482015481525050815260200190600101906101a5565b50505050905090565b60036020528060005260406000206000915090505481565b8061038d6000610af6565b81106103ce576040517f08c379a00000000000000000000000000000000000000000000000000000000081526004016103c590611376565b60405180910390fd5b60006004600084815260200190815260200160002090503373ffffffffffffffffffffffffffffffffffffffff168160010160009054906101000a900473ffffffffffffffffffffffffffffffffffffffff1673ffffffffffffffffffffffffffffffffffffffff1603610477576040517f08c379a000000000000000000000000000000000000000000000000000000000815260040161046e90611408565b60405180910390fd5b806002015434146104bd576040517f08c379a00000000000000000000000000000000000000000000000000000000081526004016104b490611474565b60405180910390fd5b348160040160008282546104d191906114c3565b925050819055508060010160009054906101000a900473ffffffffffffffffffffffffffffffffffffffff1673ffffffffffffffffffffffffffffffffffffffff166108fc349081150290604051600060405180830381858888f19350505050158015610542573d6000803e3d6000fd5b506001600360003373ffffffffffffffffffffffffffffffffffffffff1673ffffffffffffffffffffffffffffffffffffffff168152602001908152602001600020600082825461059391906114c3565b9250508190555080600301339080600181540180825580915050600190039060005260206000200160009091909190916101000a81548173ffffffffffffffffffffffffffffffffffffffff021916908373ffffffffffffffffffffffffffffffffffffffff160217905550505050565b6060600260008373ffffffffffffffffffffffffffffffffffffffff1673ffffffffffffffffffffffffffffffffffffffff16815260200190815260200160002080548060200260200160405190810160405280929190818152602001828054801561068f57602002820191906000526020600020905b81548152602001906001019080831161067b575b50505050509050919050565b60008251116106df576040517f08c379a00000000000000000000000000000000000000000000000000000000081526004016106d690611543565b60405180910390fd5b60008111610722576040517f08c379a0000000000000000000000000000000000000000000000000000000008152600401610719906115af565b60405180910390fd5b600061072e6000610af6565b9050600060046000838152602001908152602001600020905083816000019081610758919061177b565b50828160020181905550338160010160006101000a81548173ffffffffffffffffffffffffffffffffffffffff021916908373ffffffffffffffffffffffffffffffffffffffff1602179055506001819080600181540180825580915050600190039060005260206000209060050201600090919091909150600082018160000190816107e59190611863565b506001820160009054906101000a900473ffffffffffffffffffffffffffffffffffffffff168160010160006101000a81548173ffffffffffffffffffffffffffffffffffffffff021916908373ffffffffffffffffffffffffffffffffffffffff16021790555060028201548160020155600382018160030190805461086d929190610b1a565b50600482015481600401555050600260003373ffffffffffffffffffffffffffffffffffffffff1673ffffffffffffffffffffffffffffffffffffffff1681526020019081526020016000208290806001815401808255809150506001900390600052602060002001600090919091909150556108ea6000610b04565b3373ffffffffffffffffffffffffffffffffffffffff16827f57ce1f2f4225c7c8caad445b2ede3b81602520f681a45181e3f0510b4b0a848e866040516109319190611984565b60405180910390a350505050565b610947610b6c565b600460008381526020019081526020016000206040518060a0016040529081600082018054610975906112e8565b80601f01602080910402602001604051908101604052809291908181526020018280546109a1906112e8565b80156109ee5780601f106109c3576101008083540402835291602001916109ee565b820191906000526020600020905b8154815290600101906020018083116109d157829003601f168201915b505050505081526020016001820160009054906101000a900473ffffffffffffffffffffffffffffffffffffffff1673ffffffffffffffffffffffffffffffffffffffff1673ffffffffffffffffffffffffffffffffffffffff1681526020016002820154815260200160038201805480602002602001604051908101604052809291908181526020018280548015610adc57602002820191906000526020600020905b8160009054906101000a900473ffffffffffffffffffffffffffffffffffffffff1673ffffffffffffffffffffffffffffffffffffffff1681526020019060010190808311610a92575b505050505081526020016004820154815250509050919050565b600081600001549050919050565b6001816000016000828254019250508190555050565b828054828255906000526020600020908101928215610b5b5760005260206000209182015b82811115610b5a578254825591600101919060010190610b3f565b5b509050610b689190610bb1565b5090565b6040518060a0016040528060608152602001600073ffffffffffffffffffffffffffffffffffffffff1681526020016000815260200160608152602001600081525090565b5b80821115610bca576000816000905550600101610bb2565b5090565b600081519050919050565b600082825260208201905092915050565b6000819050602082019050919050565b600081519050919050565b600082825260208201905092915050565b60005b83811015610c34578082015181840152602081019050610c19565b60008484015250505050565b6000601f19601f8301169050919050565b6000610c5c82610bfa565b610c668185610c05565b9350610c76818560208601610c16565b610c7f81610c40565b840191505092915050565b600073ffffffffffffffffffffffffffffffffffffffff82169050919050565b6000610cb582610c8a565b9050919050565b610cc581610caa565b82525050565b6000819050919050565b610cde81610ccb565b82525050565b600081519050919050565b600082825260208201905092915050565b6000819050602082019050919050565b6000610d1c8383610cbc565b60208301905092915050565b6000602082019050919050565b6000610d4082610ce4565b610d4a8185610cef565b9350610d5583610d00565b8060005b83811015610d86578151610d6d8882610d10565b9750610d7883610d28565b925050600181019050610d59565b5085935050505092915050565b600060a0830160008301518482036000860152610db08282610c51565b9150506020830151610dc56020860182610cbc565b506040830151610dd86040860182610cd5565b5060608301518482036060860152610df08282610d35565b9150506080830151610e056080860182610cd5565b508091505092915050565b6000610e1c8383610d93565b905092915050565b6000602082019050919050565b6000610e3c82610bce565b610e468185610bd9565b935083602082028501610e5885610bea565b8060005b85811015610e945784840389528151610e758582610e10565b9450610e8083610e24565b925060208a01995050600181019050610e5c565b50829750879550505050505092915050565b60006020820190508181036000830152610ec08184610e31565b905092915050565b6000604051905090565b600080fd5b600080fd5b610ee581610caa565b8114610ef057600080fd5b50565b600081359050610f0281610edc565b92915050565b600060208284031215610f1e57610f1d610ed2565b5b6000610f2c84828501610ef3565b91505092915050565b610f3e81610ccb565b82525050565b6000602082019050610f596000830184610f35565b92915050565b610f6881610ccb565b8114610f7357600080fd5b50565b600081359050610f8581610f5f565b92915050565b600060208284031215610fa157610fa0610ed2565b5b6000610faf84828501610f76565b91505092915050565b600081519050919050565b600082825260208201905092915050565b6000819050602082019050919050565b6000610ff08383610cd5565b60208301905092915050565b6000602082019050919050565b600061101482610fb8565b61101e8185610fc3565b935061102983610fd4565b8060005b8381101561105a5781516110418882610fe4565b975061104c83610ffc565b92505060018101905061102d565b5085935050505092915050565b600060208201905081810360008301526110818184611009565b905092915050565b600080fd5b600080fd5b7f4e487b7100000000000000000000000000000000000000000000000000000000600052604160045260246000fd5b6110cb82610c40565b810181811067ffffffffffffffff821117156110ea576110e9611093565b5b80604052505050565b60006110fd610ec8565b905061110982826110c2565b919050565b600067ffffffffffffffff82111561112957611128611093565b5b61113282610c40565b9050602081019050919050565b82818337600083830152505050565b600061116161115c8461110e565b6110f3565b90508281526020810184848401111561117d5761117c61108e565b5b61118884828561113f565b509392505050565b600082601f8301126111a5576111a4611089565b5b81356111b584826020860161114e565b91505092915050565b600080604083850312156111d5576111d4610ed2565b5b600083013567ffffffffffffffff8111156111f3576111f2610ed7565b5b6111ff85828601611190565b925050602061121085828601610f76565b9150509250929050565b600060a08301600083015184820360008601526112378282610c51565b915050602083015161124c6020860182610cbc565b50604083015161125f6040860182610cd5565b50606083015184820360608601526112778282610d35565b915050608083015161128c6080860182610cd5565b508091505092915050565b600060208201905081810360008301526112b1818461121a565b905092915050565b7f4e487b7100000000000000000000000000000000000000000000000000000000600052602260045260246000fd5b6000600282049050600182168061130057607f821691505b602082108103611313576113126112b9565b5b50919050565b600082825260208201905092915050565b7f506f646361737420494420646f6573206e6f7420657869737400000000000000600082015250565b6000611360601983611319565b915061136b8261132a565b602082019050919050565b6000602082019050818103600083015261138f81611353565b9050919050565b7f596f752063616e6e6f7420737570706f727420796f7572206f776e20706f646360008201527f6173740000000000000000000000000000000000000000000000000000000000602082015250565b60006113f2602383611319565b91506113fd82611396565b604082019050919050565b60006020820190508181036000830152611421816113e5565b9050919050565b7f596f75206d7573742073656e642074686520657861637420616d6f756e740000600082015250565b600061145e601e83611319565b915061146982611428565b602082019050919050565b6000602082019050818103600083015261148d81611451565b9050919050565b7f4e487b7100000000000000000000000000000000000000000000000000000000600052601160045260246000fd5b60006114ce82610ccb565b91506114d983610ccb565b92508282019050808211156114f1576114f0611494565b5b92915050565b7f4950465320686173682063616e6e6f7420626520656d70747900000000000000600082015250565b600061152d601983611319565b9150611538826114f7565b602082019050919050565b6000602082019050818103600083015261155c81611520565b9050919050565b7f416d6f756e74206d7573742062652067726561746572207468616e207a65726f600082015250565b6000611599602083611319565b91506115a482611563565b602082019050919050565b600060208201905081810360008301526115c88161158c565b9050919050565b60008190508160005260206000209050919050565b60006020601f8301049050919050565b600082821b905092915050565b6000600883026116317fffffffffffffffffffffffffffffffffffffffffffffffffffffffffffffffff826115f4565b61163b86836115f4565b95508019841693508086168417925050509392505050565b6000819050919050565b600061167861167361166e84610ccb565b611653565b610ccb565b9050919050565b6000819050919050565b6116928361165d565b6116a661169e8261167f565b848454611601565b825550505050565b600090565b6116bb6116ae565b6116c6818484611689565b505050565b5b818110156116ea576116df6000826116b3565b6001810190506116cc565b5050565b601f82111561172f57611700816115cf565b611709846115e4565b81016020851015611718578190505b61172c611724856115e4565b8301826116cb565b50505b505050565b600082821c905092915050565b600061175260001984600802611734565b1980831691505092915050565b600061176b8383611741565b9150826002028217905092915050565b61178482610bfa565b67ffffffffffffffff81111561179d5761179c611093565b5b6117a782546112e8565b6117b28282856116ee565b600060209050601f8311600181146117e557600084156117d3578287015190505b6117dd858261175f565b865550611845565b601f1984166117f3866115cf565b60005b8281101561181b578489015182556001820191506020850194506020810190506117f6565b868310156118385784890151611834601f891682611741565b8355505b6001600288020188555050505b505050505050565b60008154905061185c816112e8565b9050919050565b818103611871575050611949565b61187a8261184d565b67ffffffffffffffff81111561189357611892611093565b5b61189d82546112e8565b6118a88282856116ee565b6000601f8311600181146118d757600084156118c5578287015490505b6118cf858261175f565b865550611942565b601f1984166118e5876115cf565b96506118f0866115cf565b60005b82811015611918578489015482556001820191506001850194506020810190506118f3565b868310156119355784890154611931601f891682611741565b8355505b6001600288020188555050505b5050505050505b565b600061195682610bfa565b6119608185611319565b9350611970818560208601610c16565b61197981610c40565b840191505092915050565b6000602082019050818103600083015261199e818461194b565b90509291505056fea26469706673582212209056bec8bc6421bc04efe0fd39a9d05d850c113cfe6985daec545eb72b96d75364736f6c63430008130033",
  "immutableReferences": {},
  "source": "// SPDX-License-Identifier: MIT\n\npragma solidity ^0.8.9;\n\nimport \"@openzeppelin/contracts/utils/Counters.sol\";\n\ncontract PodcastContract {\n    using Counters for Counters.Counter;\n\n    Counters.Counter private _podcastID;\n\n    struct Podcast {\n        string ipfsHash;\n        address owner;\n        uint256 amount;\n        address[] supporters;\n        uint totalSupport;\n    }\n\n    Podcast[] allPodcasts;\n    mapping(address => uint[]) userToPodcasts;\n    mapping(address => uint) public supportCount;\n    mapping(uint256 => Podcast) uintToPodcast;\n\n    event PodcastUploaded(\n        uint256 indexed id,\n        address indexed owner,\n        string ipfsHash\n    );\n\n    event PodcastSupported(\n        uint256 indexed id,\n        address indexed supporter,\n        uint256 indexed amount\n    );\n\n    modifier podcastExists(uint256 _id) {\n        require(_id < _podcastID.current(), \"Podcast ID does not exist\");\n        _;\n    }\n\n    modifier onlyPodcastOwner(uint256 _id) {\n        require(\n            uintToPodcast[_id].owner == msg.sender,\n            \"Only podcast owner can perform this action\"\n        );\n        _;\n    }\n\n    //IPFS HASH SHOULD ALSO CONTAIN THE iMAGE LINK AND TITLE\n    function uploadPodcast(string memory _ipfsHash, uint256 _amount) external {\n        require(bytes(_ipfsHash).length > 0, \"IPFS hash cannot be empty\");\n        require(_amount > 0, \"Amount must be greater than zero\");\n\n        uint256 id = _podcastID.current();\n        Podcast storage newPodcast = uintToPodcast[id];\n        newPodcast.ipfsHash = _ipfsHash;\n        newPodcast.amount = _amount;\n        newPodcast.owner = msg.sender;\n\n        allPodcasts.push(newPodcast);\n        // uintToPodcast[id] = newPodcast;\n        userToPodcasts[msg.sender].push(id);\n\n        _podcastID.increment();\n\n        emit PodcastUploaded(id, msg.sender, _ipfsHash);\n    }\n\n    function supportPodcast(uint256 _id) external payable podcastExists(_id) {\n        Podcast storage podcast = uintToPodcast[_id];\n        require(\n            podcast.owner != msg.sender,\n            \"You cannot support your own podcast\"\n        );\n        require(msg.value == podcast.amount, \"You must send the exact amount\");\n\n        podcast.totalSupport += msg.value;\n        payable(podcast.owner).transfer(msg.value);\n        supportCount[msg.sender] += 1;\n        podcast.supporters.push(msg.sender);\n    }\n\n    function retrieveAllPodcasts() external view returns (Podcast[] memory) {\n        return allPodcasts;\n    }\n\n    function getUserPodcasts(\n        address _addr\n    ) external view returns (uint[] memory) {\n        return userToPodcasts[_addr];\n    }\n\n    function getPodcastInfo(uint _id) external view returns (Podcast memory) {\n        return uintToPodcast[_id];\n    }\n}\n",
  "sourcePath": "/home/otaiki/Documents/smart-contract/contract-verbal/contracts/Podcast.sol",
  "compiler": {
    "name": "solc",
    "version": "0.8.19+commit.7dd6d404.Emscripten.clang"
  },
  "schemaVersion": "3.4.15",
  "updatedAt": "2023-08-21T22:00:13.832Z",
  "networkType": "ethereum",
  "devdoc": {
    "kind": "dev",
    "methods": {},
    "version": 1
  },
  "userdoc": {
    "kind": "user",
    "methods": {},
    "version": 1
  }
}