{
  "contractName": "RewardsContract",
  "abi": [
    {
      "inputs": [
        {
          "internalType": "address",
          "name": "_podcastContract",
          "type": "address"
        },
        {
          "internalType": "address",
          "name": "_sessionsContract",
          "type": "address"
        },
        {
          "internalType": "address",
          "name": "_verbalToken",
          "type": "address"
        }
      ],
      "stateMutability": "nonpayable",
      "type": "constructor"
    },
    {
      "anonymous": false,
      "inputs": [
        {
          "indexed": true,
          "internalType": "address",
          "name": "owner",
          "type": "address"
        },
        {
          "indexed": true,
          "internalType": "address",
          "name": "approved",
          "type": "address"
        },
        {
          "indexed": true,
          "internalType": "uint256",
          "name": "tokenId",
          "type": "uint256"
        }
      ],
      "name": "Approval",
      "type": "event"
    },
    {
      "anonymous": false,
      "inputs": [
        {
          "indexed": true,
          "internalType": "address",
          "name": "owner",
          "type": "address"
        },
        {
          "indexed": true,
          "internalType": "address",
          "name": "operator",
          "type": "address"
        },
        {
          "indexed": false,
          "internalType": "bool",
          "name": "approved",
          "type": "bool"
        }
      ],
      "name": "ApprovalForAll",
      "type": "event"
    },
    {
      "anonymous": false,
      "inputs": [
        {
          "indexed": true,
          "internalType": "address",
          "name": "from",
          "type": "address"
        },
        {
          "indexed": true,
          "internalType": "address",
          "name": "to",
          "type": "address"
        },
        {
          "indexed": true,
          "internalType": "uint256",
          "name": "tokenId",
          "type": "uint256"
        }
      ],
      "name": "Transfer",
      "type": "event"
    },
    {
      "inputs": [
        {
          "internalType": "address",
          "name": "to",
          "type": "address"
        },
        {
          "internalType": "uint256",
          "name": "tokenId",
          "type": "uint256"
        }
      ],
      "name": "approve",
      "outputs": [],
      "stateMutability": "nonpayable",
      "type": "function"
    },
    {
      "inputs": [
        {
          "internalType": "address",
          "name": "owner",
          "type": "address"
        }
      ],
      "name": "balanceOf",
      "outputs": [
        {
          "internalType": "uint256",
          "name": "",
          "type": "uint256"
        }
      ],
      "stateMutability": "view",
      "type": "function",
      "constant": true
    },
    {
      "inputs": [
        {
          "internalType": "uint256",
          "name": "tokenId",
          "type": "uint256"
        }
      ],
      "name": "getApproved",
      "outputs": [
        {
          "internalType": "address",
          "name": "",
          "type": "address"
        }
      ],
      "stateMutability": "view",
      "type": "function",
      "constant": true
    },
    {
      "inputs": [
        {
          "internalType": "address",
          "name": "owner",
          "type": "address"
        },
        {
          "internalType": "address",
          "name": "operator",
          "type": "address"
        }
      ],
      "name": "isApprovedForAll",
      "outputs": [
        {
          "internalType": "bool",
          "name": "",
          "type": "bool"
        }
      ],
      "stateMutability": "view",
      "type": "function",
      "constant": true
    },
    {
      "inputs": [],
      "name": "name",
      "outputs": [
        {
          "internalType": "string",
          "name": "",
          "type": "string"
        }
      ],
      "stateMutability": "view",
      "type": "function",
      "constant": true
    },
    {
      "inputs": [
        {
          "internalType": "uint256",
          "name": "tokenId",
          "type": "uint256"
        }
      ],
      "name": "ownerOf",
      "outputs": [
        {
          "internalType": "address",
          "name": "",
          "type": "address"
        }
      ],
      "stateMutability": "view",
      "type": "function",
      "constant": true
    },
    {
      "inputs": [],
      "name": "podcastContract",
      "outputs": [
        {
          "internalType": "contract IPodcastContract",
          "name": "",
          "type": "address"
        }
      ],
      "stateMutability": "view",
      "type": "function",
      "constant": true
    },
    {
      "inputs": [
        {
          "internalType": "address",
          "name": "from",
          "type": "address"
        },
        {
          "internalType": "address",
          "name": "to",
          "type": "address"
        },
        {
          "internalType": "uint256",
          "name": "tokenId",
          "type": "uint256"
        }
      ],
      "name": "safeTransferFrom",
      "outputs": [],
      "stateMutability": "nonpayable",
      "type": "function"
    },
    {
      "inputs": [
        {
          "internalType": "address",
          "name": "from",
          "type": "address"
        },
        {
          "internalType": "address",
          "name": "to",
          "type": "address"
        },
        {
          "internalType": "uint256",
          "name": "tokenId",
          "type": "uint256"
        },
        {
          "internalType": "bytes",
          "name": "data",
          "type": "bytes"
        }
      ],
      "name": "safeTransferFrom",
      "outputs": [],
      "stateMutability": "nonpayable",
      "type": "function"
    },
    {
      "inputs": [],
      "name": "sessionsContract",
      "outputs": [
        {
          "internalType": "contract ISessions",
          "name": "",
          "type": "address"
        }
      ],
      "stateMutability": "view",
      "type": "function",
      "constant": true
    },
    {
      "inputs": [
        {
          "internalType": "address",
          "name": "operator",
          "type": "address"
        },
        {
          "internalType": "bool",
          "name": "approved",
          "type": "bool"
        }
      ],
      "name": "setApprovalForAll",
      "outputs": [],
      "stateMutability": "nonpayable",
      "type": "function"
    },
    {
      "inputs": [
        {
          "internalType": "bytes4",
          "name": "interfaceId",
          "type": "bytes4"
        }
      ],
      "name": "supportsInterface",
      "outputs": [
        {
          "internalType": "bool",
          "name": "",
          "type": "bool"
        }
      ],
      "stateMutability": "view",
      "type": "function",
      "constant": true
    },
    {
      "inputs": [],
      "name": "symbol",
      "outputs": [
        {
          "internalType": "string",
          "name": "",
          "type": "string"
        }
      ],
      "stateMutability": "view",
      "type": "function",
      "constant": true
    },
    {
      "inputs": [],
      "name": "tokenContract",
      "outputs": [
        {
          "internalType": "contract IERC20",
          "name": "",
          "type": "address"
        }
      ],
      "stateMutability": "view",
      "type": "function",
      "constant": true
    },
    {
      "inputs": [
        {
          "internalType": "uint256",
          "name": "tokenId",
          "type": "uint256"
        }
      ],
      "name": "tokenURI",
      "outputs": [
        {
          "internalType": "string",
          "name": "",
          "type": "string"
        }
      ],
      "stateMutability": "view",
      "type": "function",
      "constant": true
    },
    {
      "inputs": [
        {
          "internalType": "address",
          "name": "from",
          "type": "address"
        },
        {
          "internalType": "address",
          "name": "to",
          "type": "address"
        },
        {
          "internalType": "uint256",
          "name": "tokenId",
          "type": "uint256"
        }
      ],
      "name": "transferFrom",
      "outputs": [],
      "stateMutability": "nonpayable",
      "type": "function"
    },
    {
      "inputs": [
        {
          "internalType": "address",
          "name": "_user",
          "type": "address"
        }
      ],
      "name": "checkAndReward",
      "outputs": [],
      "stateMutability": "nonpayable",
      "type": "function"
    },
    {
      "inputs": [
        {
          "internalType": "address",
          "name": "userAddress",
          "type": "address"
        }
      ],
      "name": "getCountOfUploadPodcastRewards",
      "outputs": [
        {
          "internalType": "uint256",
          "name": "",
          "type": "uint256"
        }
      ],
      "stateMutability": "view",
      "type": "function",
      "constant": true
    },
    {
      "inputs": [
        {
          "internalType": "address",
          "name": "userAddress",
          "type": "address"
        }
      ],
      "name": "getCountOfSupportRewards",
      "outputs": [
        {
          "internalType": "uint256",
          "name": "",
          "type": "uint256"
        }
      ],
      "stateMutability": "view",
      "type": "function",
      "constant": true
    },
    {
      "inputs": [
        {
          "internalType": "address",
          "name": "userAddress",
          "type": "address"
        }
      ],
      "name": "getCountOfAttendanceRewards",
      "outputs": [
        {
          "internalType": "uint256",
          "name": "",
          "type": "uint256"
        }
      ],
      "stateMutability": "view",
      "type": "function",
      "constant": true
    },
    {
      "inputs": [
        {
          "internalType": "address",
          "name": "userAddress",
          "type": "address"
        }
      ],
      "name": "getCountOfMentoringRewards",
      "outputs": [
        {
          "internalType": "uint256",
          "name": "",
          "type": "uint256"
        }
      ],
      "stateMutability": "view",
      "type": "function",
      "constant": true
    }
  ],
  "bytecode": "0x60e06040523480156200001157600080fd5b5060405162003cf138038062003cf18339818101604052810190620000379190620001d8565b6040518060400160405280601281526020017f56657262616c2052657761726473204e465400000000000000000000000000008152506040518060400160405280600481526020017f524e4654000000000000000000000000000000000000000000000000000000008152508160009081620000b49190620004ae565b508060019081620000c69190620004ae565b5050508273ffffffffffffffffffffffffffffffffffffffff1660808173ffffffffffffffffffffffffffffffffffffffff16815250508173ffffffffffffffffffffffffffffffffffffffff1660a08173ffffffffffffffffffffffffffffffffffffffff16815250508073ffffffffffffffffffffffffffffffffffffffff1660c08173ffffffffffffffffffffffffffffffffffffffff168152505050505062000595565b600080fd5b600073ffffffffffffffffffffffffffffffffffffffff82169050919050565b6000620001a08262000173565b9050919050565b620001b28162000193565b8114620001be57600080fd5b50565b600081519050620001d281620001a7565b92915050565b600080600060608486031215620001f457620001f36200016e565b5b60006200020486828701620001c1565b93505060206200021786828701620001c1565b92505060406200022a86828701620001c1565b9150509250925092565b600081519050919050565b7f4e487b7100000000000000000000000000000000000000000000000000000000600052604160045260246000fd5b7f4e487b7100000000000000000000000000000000000000000000000000000000600052602260045260246000fd5b60006002820490506001821680620002b657607f821691505b602082108103620002cc57620002cb6200026e565b5b50919050565b60008190508160005260206000209050919050565b60006020601f8301049050919050565b600082821b905092915050565b600060088302620003367fffffffffffffffffffffffffffffffffffffffffffffffffffffffffffffffff82620002f7565b620003428683620002f7565b95508019841693508086168417925050509392505050565b6000819050919050565b6000819050919050565b60006200038f6200038962000383846200035a565b62000364565b6200035a565b9050919050565b6000819050919050565b620003ab836200036e565b620003c3620003ba8262000396565b84845462000304565b825550505050565b600090565b620003da620003cb565b620003e7818484620003a0565b505050565b5b818110156200040f5762000403600082620003d0565b600181019050620003ed565b5050565b601f8211156200045e576200042881620002d2565b6200043384620002e7565b8101602085101562000443578190505b6200045b6200045285620002e7565b830182620003ec565b50505b505050565b600082821c905092915050565b6000620004836000198460080262000463565b1980831691505092915050565b60006200049e838362000470565b9150826002028217905092915050565b620004b98262000234565b67ffffffffffffffff811115620004d557620004d46200023f565b5b620004e182546200029d565b620004ee82828562000413565b600060209050601f83116001811462000526576000841562000511578287015190505b6200051d858262000490565b8655506200058d565b601f1984166200053686620002d2565b60005b82811015620005605784890151825560018201915060208501945060208101905062000539565b868310156200058057848901516200057c601f89168262000470565b8355505b6001600288020188555050505b505050505050565b60805160a05160c0516136f4620005fd6000396000818161081a01528181610c9101528181610f770152818161125e015261154601526000818161102c0152818161130801526116c401526000818161053e01528181610a580152610d3901526136f46000f3fe608060405234801561001057600080fd5b50600436106101375760003560e01c806370a08231116100b8578063b5dfb7f81161007c578063b5dfb7f814610360578063b88d4fde14610390578063bcc39b35146103ac578063c87b56dd146103ca578063ca38f113146103fa578063e985e9c51461042a57610137565b806370a08231146102aa5780639219e79e146102da57806395d89b411461030a5780639f38e7dd14610328578063a22cb4651461034457610137565b806323b872dd116100ff57806323b872dd146101f457806333f01e1f1461021057806342842e0e1461024057806355a373d61461025c5780636352211e1461027a57610137565b806301ffc9a71461013c578063054e8dfe1461016c57806306fdde031461018a578063081812fc146101a8578063095ea7b3146101d8575b600080fd5b61015660048036038101906101519190612636565b61045a565b604051610163919061267e565b60405180910390f35b61017461053c565b6040516101819190612718565b60405180910390f35b610192610560565b60405161019f91906127c3565b60405180910390f35b6101c260048036038101906101bd919061281b565b6105f2565b6040516101cf9190612869565b60405180910390f35b6101f260048036038101906101ed91906128b0565b610638565b005b61020e600480360381019061020991906128f0565b61074f565b005b61022a60048036038101906102259190612943565b6107af565b604051610237919061297f565b60405180910390f35b61025a600480360381019061025591906128f0565b6107f8565b005b610264610818565b60405161027191906129bb565b60405180910390f35b610294600480360381019061028f919061281b565b61083c565b6040516102a19190612869565b60405180910390f35b6102c460048036038101906102bf9190612943565b6108c2565b6040516102d1919061297f565b60405180910390f35b6102f460048036038101906102ef9190612943565b610979565b604051610301919061297f565b60405180910390f35b6103126109c2565b60405161031f91906127c3565b60405180910390f35b610342600480360381019061033d9190612943565b610a54565b005b61035e60048036038101906103599190612a02565b611601565b005b61037a60048036038101906103759190612943565b611617565b604051610387919061297f565b60405180910390f35b6103aa60048036038101906103a59190612b77565b611660565b005b6103b46116c2565b6040516103c19190612c1b565b60405180910390f35b6103e460048036038101906103df919061281b565b6116e6565b6040516103f191906127c3565b60405180910390f35b610414600480360381019061040f9190612943565b61174e565b604051610421919061297f565b60405180910390f35b610444600480360381019061043f9190612c36565b611797565b604051610451919061267e565b60405180910390f35b60007f80ac58cd000000000000000000000000000000000000000000000000000000007bffffffffffffffffffffffffffffffffffffffffffffffffffffffff1916827bffffffffffffffffffffffffffffffffffffffffffffffffffffffff1916148061052557507f5b5e139f000000000000000000000000000000000000000000000000000000007bffffffffffffffffffffffffffffffffffffffffffffffffffffffff1916827bffffffffffffffffffffffffffffffffffffffffffffffffffffffff1916145b8061053557506105348261182b565b5b9050919050565b7f000000000000000000000000000000000000000000000000000000000000000081565b60606000805461056f90612ca5565b80601f016020809104026020016040519081016040528092919081815260200182805461059b90612ca5565b80156105e85780601f106105bd576101008083540402835291602001916105e8565b820191906000526020600020905b8154815290600101906020018083116105cb57829003601f168201915b5050505050905090565b60006105fd82611895565b6004600083815260200190815260200160002060009054906101000a900473ffffffffffffffffffffffffffffffffffffffff169050919050565b60006106438261083c565b90508073ffffffffffffffffffffffffffffffffffffffff168373ffffffffffffffffffffffffffffffffffffffff16036106b3576040517f08c379a00000000000000000000000000000000000000000000000000000000081526004016106aa90612d48565b60405180910390fd5b8073ffffffffffffffffffffffffffffffffffffffff166106d26118e0565b73ffffffffffffffffffffffffffffffffffffffff1614806107015750610700816106fb6118e0565b611797565b5b610740576040517f08c379a000000000000000000000000000000000000000000000000000000000815260040161073790612dda565b60405180910390fd5b61074a83836118e8565b505050565b61076061075a6118e0565b826119a1565b61079f576040517f08c379a000000000000000000000000000000000000000000000000000000000815260040161079690612e6c565b60405180910390fd5b6107aa838383611a36565b505050565b6000600960008373ffffffffffffffffffffffffffffffffffffffff1673ffffffffffffffffffffffffffffffffffffffff168152602001908152602001600020549050919050565b61081383838360405180602001604052806000815250611660565b505050565b7f000000000000000000000000000000000000000000000000000000000000000081565b60008061084883611d2f565b9050600073ffffffffffffffffffffffffffffffffffffffff168173ffffffffffffffffffffffffffffffffffffffff16036108b9576040517f08c379a00000000000000000000000000000000000000000000000000000000081526004016108b090612ed8565b60405180910390fd5b80915050919050565b60008073ffffffffffffffffffffffffffffffffffffffff168273ffffffffffffffffffffffffffffffffffffffff1603610932576040517f08c379a000000000000000000000000000000000000000000000000000000000815260040161092990612f6a565b60405180910390fd5b600360008373ffffffffffffffffffffffffffffffffffffffff1673ffffffffffffffffffffffffffffffffffffffff168152602001908152602001600020549050919050565b6000600860008373ffffffffffffffffffffffffffffffffffffffff1673ffffffffffffffffffffffffffffffffffffffff168152602001908152602001600020549050919050565b6060600180546109d190612ca5565b80601f01602080910402602001604051908101604052809291908181526020018280546109fd90612ca5565b8015610a4a5780601f10610a1f57610100808354040283529160200191610a4a565b820191906000526020600020905b815481529060010190602001808311610a2d57829003601f168201915b5050505050905090565b60007f000000000000000000000000000000000000000000000000000000000000000073ffffffffffffffffffffffffffffffffffffffff16636842cfa9836040518263ffffffff1660e01b8152600401610aaf9190612869565b600060405180830381865afa158015610acc573d6000803e3d6000fd5b505050506040513d6000823e3d601f19601f82011682018060405250810190610af59190613067565b90506000600760008473ffffffffffffffffffffffffffffffffffffffff1673ffffffffffffffffffffffffffffffffffffffff1681526020019081526020016000205414158015610b9257506000601e600760008573ffffffffffffffffffffffffffffffffffffffff1673ffffffffffffffffffffffffffffffffffffffff16815260200190815260200160002054610b9091906130df565b145b15610ba157610ba082611d6c565b5b600760008373ffffffffffffffffffffffffffffffffffffffff1673ffffffffffffffffffffffffffffffffffffffff1681526020019081526020016000205481511115610d35576000600760008473ffffffffffffffffffffffffffffffffffffffff1673ffffffffffffffffffffffffffffffffffffffff168152602001908152602001600020548251610c37919061313f565b905080600760008573ffffffffffffffffffffffffffffffffffffffff1673ffffffffffffffffffffffffffffffffffffffff1681526020019081526020016000206000828254610c889190613173565b925050819055507f000000000000000000000000000000000000000000000000000000000000000073ffffffffffffffffffffffffffffffffffffffff1663a9059cbb84836040518363ffffffff1660e01b8152600401610cea9291906131a7565b6020604051808303816000875af1158015610d09573d6000803e3d6000fd5b505050506040513d601f19601f82011682018060405250810190610d2d91906131e5565b5050506115fe565b60007f000000000000000000000000000000000000000000000000000000000000000073ffffffffffffffffffffffffffffffffffffffff16630c1fa1ef846040518263ffffffff1660e01b8152600401610d909190612869565b602060405180830381865afa158015610dad573d6000803e3d6000fd5b505050506040513d601f19601f82011682018060405250810190610dd19190613212565b90506000600860008573ffffffffffffffffffffffffffffffffffffffff1673ffffffffffffffffffffffffffffffffffffffff1681526020019081526020016000205414158015610e6e575060006014600860008673ffffffffffffffffffffffffffffffffffffffff1673ffffffffffffffffffffffffffffffffffffffff16815260200190815260200160002054610e6c91906130df565b145b15610e7d57610e7c83611d6c565b5b600860008473ffffffffffffffffffffffffffffffffffffffff1673ffffffffffffffffffffffffffffffffffffffff16815260200190815260200160002054811115611028576000600860008573ffffffffffffffffffffffffffffffffffffffff1673ffffffffffffffffffffffffffffffffffffffff1681526020019081526020016000205482610f11919061313f565b9050600281610f20919061323f565b600860008673ffffffffffffffffffffffffffffffffffffffff1673ffffffffffffffffffffffffffffffffffffffff1681526020019081526020016000206000828254610f6e9190613173565b925050819055507f000000000000000000000000000000000000000000000000000000000000000073ffffffffffffffffffffffffffffffffffffffff1663a9059cbb85600284610fbf919061323f565b6040518363ffffffff1660e01b8152600401610fdc9291906131a7565b6020604051808303816000875af1158015610ffb573d6000803e3d6000fd5b505050506040513d601f19601f8201168201806040525081019061101f91906131e5565b505050506115fe565b60007f000000000000000000000000000000000000000000000000000000000000000073ffffffffffffffffffffffffffffffffffffffff16636564e5b0856040518263ffffffff1660e01b81526004016110839190612869565b602060405180830381865afa1580156110a0573d6000803e3d6000fd5b505050506040513d601f19601f820116820180604052508101906110c49190613212565b90506000600960008673ffffffffffffffffffffffffffffffffffffffff1673ffffffffffffffffffffffffffffffffffffffff168152602001908152602001600020541415801561116157506000600a600960008773ffffffffffffffffffffffffffffffffffffffff1673ffffffffffffffffffffffffffffffffffffffff1681526020019081526020016000205461115f91906130df565b145b156111705761116f84611d6c565b5b600960008573ffffffffffffffffffffffffffffffffffffffff1673ffffffffffffffffffffffffffffffffffffffff16815260200190815260200160002054811115611304576000600960008673ffffffffffffffffffffffffffffffffffffffff1673ffffffffffffffffffffffffffffffffffffffff1681526020019081526020016000205482611204919061313f565b905080600960008773ffffffffffffffffffffffffffffffffffffffff1673ffffffffffffffffffffffffffffffffffffffff16815260200190815260200160002060008282546112559190613173565b925050819055507f000000000000000000000000000000000000000000000000000000000000000073ffffffffffffffffffffffffffffffffffffffff1663a9059cbb86836040518363ffffffff1660e01b81526004016112b79291906131a7565b6020604051808303816000875af11580156112d6573d6000803e3d6000fd5b505050506040513d601f19601f820116820180604052508101906112fa91906131e5565b50505050506115fe565b60007f000000000000000000000000000000000000000000000000000000000000000073ffffffffffffffffffffffffffffffffffffffff1663b435d1bf866040518263ffffffff1660e01b815260040161135f9190612869565b602060405180830381865afa15801561137c573d6000803e3d6000fd5b505050506040513d601f19601f820116820180604052508101906113a09190613212565b90506000600a60008773ffffffffffffffffffffffffffffffffffffffff1673ffffffffffffffffffffffffffffffffffffffff168152602001908152602001600020541415801561143d57506000600c600a60008873ffffffffffffffffffffffffffffffffffffffff1673ffffffffffffffffffffffffffffffffffffffff1681526020019081526020016000205461143b91906130df565b145b1561144c5761144b85611d6c565b5b600a60008673ffffffffffffffffffffffffffffffffffffffff1673ffffffffffffffffffffffffffffffffffffffff168152602001908152602001600020548111156115f9576000600a60008773ffffffffffffffffffffffffffffffffffffffff1673ffffffffffffffffffffffffffffffffffffffff16815260200190815260200160002054826114e0919061313f565b90506002816114ef919061323f565b600a60008873ffffffffffffffffffffffffffffffffffffffff1673ffffffffffffffffffffffffffffffffffffffff168152602001908152602001600020600082825461153d9190613173565b925050819055507f000000000000000000000000000000000000000000000000000000000000000073ffffffffffffffffffffffffffffffffffffffff1663a9059cbb8760028461158e919061323f565b6040518363ffffffff1660e01b81526004016115ab9291906131a7565b6020604051808303816000875af11580156115ca573d6000803e3d6000fd5b505050506040513d601f19601f820116820180604052508101906115ee91906131e5565b5050505050506115fe565b505050505b50565b61161361160c6118e0565b8383611d92565b5050565b6000600760008373ffffffffffffffffffffffffffffffffffffffff1673ffffffffffffffffffffffffffffffffffffffff168152602001908152602001600020549050919050565b61167161166b6118e0565b836119a1565b6116b0576040517f08c379a00000000000000000000000000000000000000000000000000000000081526004016116a790612e6c565b60405180910390fd5b6116bc84848484611efe565b50505050565b7f000000000000000000000000000000000000000000000000000000000000000081565b60606116f182611895565b60006116fb611f5a565b9050600081511161171b5760405180602001604052806000815250611746565b8061172584611f71565b6040516020016117369291906132bd565b6040516020818303038152906040525b915050919050565b6000600a60008373ffffffffffffffffffffffffffffffffffffffff1673ffffffffffffffffffffffffffffffffffffffff168152602001908152602001600020549050919050565b6000600560008473ffffffffffffffffffffffffffffffffffffffff1673ffffffffffffffffffffffffffffffffffffffff16815260200190815260200160002060008373ffffffffffffffffffffffffffffffffffffffff1673ffffffffffffffffffffffffffffffffffffffff16815260200190815260200160002060009054906101000a900460ff16905092915050565b60007f01ffc9a7000000000000000000000000000000000000000000000000000000007bffffffffffffffffffffffffffffffffffffffffffffffffffffffff1916827bffffffffffffffffffffffffffffffffffffffffffffffffffffffff1916149050919050565b61189e8161203f565b6118dd576040517f08c379a00000000000000000000000000000000000000000000000000000000081526004016118d490612ed8565b60405180910390fd5b50565b600033905090565b816004600083815260200190815260200160002060006101000a81548173ffffffffffffffffffffffffffffffffffffffff021916908373ffffffffffffffffffffffffffffffffffffffff160217905550808273ffffffffffffffffffffffffffffffffffffffff1661195b8361083c565b73ffffffffffffffffffffffffffffffffffffffff167f8c5be1e5ebec7d5bd14f71427d1e84f3dd0314c0f7b2291e5b200ac8c7c3b92560405160405180910390a45050565b6000806119ad8361083c565b90508073ffffffffffffffffffffffffffffffffffffffff168473ffffffffffffffffffffffffffffffffffffffff1614806119ef57506119ee8185611797565b5b80611a2d57508373ffffffffffffffffffffffffffffffffffffffff16611a15846105f2565b73ffffffffffffffffffffffffffffffffffffffff16145b91505092915050565b8273ffffffffffffffffffffffffffffffffffffffff16611a568261083c565b73ffffffffffffffffffffffffffffffffffffffff1614611aac576040517f08c379a0000000000000000000000000000000000000000000000000000000008152600401611aa390613353565b60405180910390fd5b600073ffffffffffffffffffffffffffffffffffffffff168273ffffffffffffffffffffffffffffffffffffffff1603611b1b576040517f08c379a0000000000000000000000000000000000000000000000000000000008152600401611b12906133e5565b60405180910390fd5b611b288383836001612080565b8273ffffffffffffffffffffffffffffffffffffffff16611b488261083c565b73ffffffffffffffffffffffffffffffffffffffff1614611b9e576040517f08c379a0000000000000000000000000000000000000000000000000000000008152600401611b9590613353565b60405180910390fd5b6004600082815260200190815260200160002060006101000a81549073ffffffffffffffffffffffffffffffffffffffff02191690556001600360008573ffffffffffffffffffffffffffffffffffffffff1673ffffffffffffffffffffffffffffffffffffffff168152602001908152602001600020600082825403925050819055506001600360008473ffffffffffffffffffffffffffffffffffffffff1673ffffffffffffffffffffffffffffffffffffffff16815260200190815260200160002060008282540192505081905550816002600083815260200190815260200160002060006101000a81548173ffffffffffffffffffffffffffffffffffffffff021916908373ffffffffffffffffffffffffffffffffffffffff160217905550808273ffffffffffffffffffffffffffffffffffffffff168473ffffffffffffffffffffffffffffffffffffffff167fddf252ad1be2c89b69c2b068fc378daa952ba7f163c4a11628f55a4df523b3ef60405160405180910390a4611d2a8383836001612086565b505050565b60006002600083815260200190815260200160002060009054906101000a900473ffffffffffffffffffffffffffffffffffffffff169050919050565b611d76600661208c565b6000611d8260066120a2565b9050611d8e82826120b0565b5050565b8173ffffffffffffffffffffffffffffffffffffffff168373ffffffffffffffffffffffffffffffffffffffff1603611e00576040517f08c379a0000000000000000000000000000000000000000000000000000000008152600401611df790613451565b60405180910390fd5b80600560008573ffffffffffffffffffffffffffffffffffffffff1673ffffffffffffffffffffffffffffffffffffffff16815260200190815260200160002060008473ffffffffffffffffffffffffffffffffffffffff1673ffffffffffffffffffffffffffffffffffffffff16815260200190815260200160002060006101000a81548160ff0219169083151502179055508173ffffffffffffffffffffffffffffffffffffffff168373ffffffffffffffffffffffffffffffffffffffff167f17307eab39ab6107e8899845ad3d59bd9653f200f220920489ca2b5937696c3183604051611ef1919061267e565b60405180910390a3505050565b611f09848484611a36565b611f15848484846122cd565b611f54576040517f08c379a0000000000000000000000000000000000000000000000000000000008152600401611f4b906134e3565b60405180910390fd5b50505050565b606060405180602001604052806000815250905090565b606060006001611f8084612454565b01905060008167ffffffffffffffff811115611f9f57611f9e612a4c565b5b6040519080825280601f01601f191660200182016040528015611fd15781602001600182028036833780820191505090505b509050600082602001820190505b600115612034578080600190039150507f3031323334353637383961626364656600000000000000000000000000000000600a86061a8153600a8581612028576120276130b0565b5b04945060008503611fdf575b819350505050919050565b60008073ffffffffffffffffffffffffffffffffffffffff1661206183611d2f565b73ffffffffffffffffffffffffffffffffffffffff1614159050919050565b50505050565b50505050565b6001816000016000828254019250508190555050565b600081600001549050919050565b600073ffffffffffffffffffffffffffffffffffffffff168273ffffffffffffffffffffffffffffffffffffffff160361211f576040517f08c379a00000000000000000000000000000000000000000000000000000000081526004016121169061354f565b60405180910390fd5b6121288161203f565b15612168576040517f08c379a000000000000000000000000000000000000000000000000000000000815260040161215f906135bb565b60405180910390fd5b612176600083836001612080565b61217f8161203f565b156121bf576040517f08c379a00000000000000000000000000000000000000000000000000000000081526004016121b6906135bb565b60405180910390fd5b6001600360008473ffffffffffffffffffffffffffffffffffffffff1673ffffffffffffffffffffffffffffffffffffffff16815260200190815260200160002060008282540192505081905550816002600083815260200190815260200160002060006101000a81548173ffffffffffffffffffffffffffffffffffffffff021916908373ffffffffffffffffffffffffffffffffffffffff160217905550808273ffffffffffffffffffffffffffffffffffffffff16600073ffffffffffffffffffffffffffffffffffffffff167fddf252ad1be2c89b69c2b068fc378daa952ba7f163c4a11628f55a4df523b3ef60405160405180910390a46122c9600083836001612086565b5050565b60006122ee8473ffffffffffffffffffffffffffffffffffffffff166125a7565b15612447578373ffffffffffffffffffffffffffffffffffffffff1663150b7a026123176118e0565b8786866040518563ffffffff1660e01b81526004016123399493929190613630565b6020604051808303816000875af192505050801561237557506040513d601f19601f820116820180604052508101906123729190613691565b60015b6123f7573d80600081146123a5576040519150601f19603f3d011682016040523d82523d6000602084013e6123aa565b606091505b5060008151036123ef576040517f08c379a00000000000000000000000000000000000000000000000000000000081526004016123e6906134e3565b60405180910390fd5b805181602001fd5b63150b7a0260e01b7bffffffffffffffffffffffffffffffffffffffffffffffffffffffff1916817bffffffffffffffffffffffffffffffffffffffffffffffffffffffff19161491505061244c565b600190505b949350505050565b600080600090507a184f03e93ff9f4daa797ed6e38ed64bf6a1f01000000000000000083106124b2577a184f03e93ff9f4daa797ed6e38ed64bf6a1f01000000000000000083816124a8576124a76130b0565b5b0492506040810190505b6d04ee2d6d415b85acef810000000083106124ef576d04ee2d6d415b85acef810000000083816124e5576124e46130b0565b5b0492506020810190505b662386f26fc10000831061251e57662386f26fc100008381612514576125136130b0565b5b0492506010810190505b6305f5e1008310612547576305f5e100838161253d5761253c6130b0565b5b0492506008810190505b612710831061256c576127108381612562576125616130b0565b5b0492506004810190505b6064831061258f5760648381612585576125846130b0565b5b0492506002810190505b600a831061259e576001810190505b80915050919050565b6000808273ffffffffffffffffffffffffffffffffffffffff163b119050919050565b6000604051905090565b600080fd5b600080fd5b60007fffffffff0000000000000000000000000000000000000000000000000000000082169050919050565b612613816125de565b811461261e57600080fd5b50565b6000813590506126308161260a565b92915050565b60006020828403121561264c5761264b6125d4565b5b600061265a84828501612621565b91505092915050565b60008115159050919050565b61267881612663565b82525050565b6000602082019050612693600083018461266f565b92915050565b600073ffffffffffffffffffffffffffffffffffffffff82169050919050565b6000819050919050565b60006126de6126d96126d484612699565b6126b9565b612699565b9050919050565b60006126f0826126c3565b9050919050565b6000612702826126e5565b9050919050565b612712816126f7565b82525050565b600060208201905061272d6000830184612709565b92915050565b600081519050919050565b600082825260208201905092915050565b60005b8381101561276d578082015181840152602081019050612752565b60008484015250505050565b6000601f19601f8301169050919050565b600061279582612733565b61279f818561273e565b93506127af81856020860161274f565b6127b881612779565b840191505092915050565b600060208201905081810360008301526127dd818461278a565b905092915050565b6000819050919050565b6127f8816127e5565b811461280357600080fd5b50565b600081359050612815816127ef565b92915050565b600060208284031215612831576128306125d4565b5b600061283f84828501612806565b91505092915050565b600061285382612699565b9050919050565b61286381612848565b82525050565b600060208201905061287e600083018461285a565b92915050565b61288d81612848565b811461289857600080fd5b50565b6000813590506128aa81612884565b92915050565b600080604083850312156128c7576128c66125d4565b5b60006128d58582860161289b565b92505060206128e685828601612806565b9150509250929050565b600080600060608486031215612909576129086125d4565b5b60006129178682870161289b565b93505060206129288682870161289b565b925050604061293986828701612806565b9150509250925092565b600060208284031215612959576129586125d4565b5b60006129678482850161289b565b91505092915050565b612979816127e5565b82525050565b60006020820190506129946000830184612970565b92915050565b60006129a5826126e5565b9050919050565b6129b58161299a565b82525050565b60006020820190506129d060008301846129ac565b92915050565b6129df81612663565b81146129ea57600080fd5b50565b6000813590506129fc816129d6565b92915050565b60008060408385031215612a1957612a186125d4565b5b6000612a278582860161289b565b9250506020612a38858286016129ed565b9150509250929050565b600080fd5b600080fd5b7f4e487b7100000000000000000000000000000000000000000000000000000000600052604160045260246000fd5b612a8482612779565b810181811067ffffffffffffffff82111715612aa357612aa2612a4c565b5b80604052505050565b6000612ab66125ca565b9050612ac28282612a7b565b919050565b600067ffffffffffffffff821115612ae257612ae1612a4c565b5b612aeb82612779565b9050602081019050919050565b82818337600083830152505050565b6000612b1a612b1584612ac7565b612aac565b905082815260208101848484011115612b3657612b35612a47565b5b612b41848285612af8565b509392505050565b600082601f830112612b5e57612b5d612a42565b5b8135612b6e848260208601612b07565b91505092915050565b60008060008060808587031215612b9157612b906125d4565b5b6000612b9f8782880161289b565b9450506020612bb08782880161289b565b9350506040612bc187828801612806565b925050606085013567ffffffffffffffff811115612be257612be16125d9565b5b612bee87828801612b49565b91505092959194509250565b6000612c05826126e5565b9050919050565b612c1581612bfa565b82525050565b6000602082019050612c306000830184612c0c565b92915050565b60008060408385031215612c4d57612c4c6125d4565b5b6000612c5b8582860161289b565b9250506020612c6c8582860161289b565b9150509250929050565b7f4e487b7100000000000000000000000000000000000000000000000000000000600052602260045260246000fd5b60006002820490506001821680612cbd57607f821691505b602082108103612cd057612ccf612c76565b5b50919050565b7f4552433732313a20617070726f76616c20746f2063757272656e74206f776e6560008201527f7200000000000000000000000000000000000000000000000000000000000000602082015250565b6000612d3260218361273e565b9150612d3d82612cd6565b604082019050919050565b60006020820190508181036000830152612d6181612d25565b9050919050565b7f4552433732313a20617070726f76652063616c6c6572206973206e6f7420746f60008201527f6b656e206f776e6572206f7220617070726f76656420666f7220616c6c000000602082015250565b6000612dc4603d8361273e565b9150612dcf82612d68565b604082019050919050565b60006020820190508181036000830152612df381612db7565b9050919050565b7f4552433732313a2063616c6c6572206973206e6f7420746f6b656e206f776e6560008201527f72206f7220617070726f76656400000000000000000000000000000000000000602082015250565b6000612e56602d8361273e565b9150612e6182612dfa565b604082019050919050565b60006020820190508181036000830152612e8581612e49565b9050919050565b7f4552433732313a20696e76616c696420746f6b656e2049440000000000000000600082015250565b6000612ec260188361273e565b9150612ecd82612e8c565b602082019050919050565b60006020820190508181036000830152612ef181612eb5565b9050919050565b7f4552433732313a2061646472657373207a65726f206973206e6f74206120766160008201527f6c6964206f776e65720000000000000000000000000000000000000000000000602082015250565b6000612f5460298361273e565b9150612f5f82612ef8565b604082019050919050565b60006020820190508181036000830152612f8381612f47565b9050919050565b600067ffffffffffffffff821115612fa557612fa4612a4c565b5b602082029050602081019050919050565b600080fd5b600081519050612fca816127ef565b92915050565b6000612fe3612fde84612f8a565b612aac565b9050808382526020820190506020840283018581111561300657613005612fb6565b5b835b8181101561302f578061301b8882612fbb565b845260208401935050602081019050613008565b5050509392505050565b600082601f83011261304e5761304d612a42565b5b815161305e848260208601612fd0565b91505092915050565b60006020828403121561307d5761307c6125d4565b5b600082015167ffffffffffffffff81111561309b5761309a6125d9565b5b6130a784828501613039565b91505092915050565b7f4e487b7100000000000000000000000000000000000000000000000000000000600052601260045260246000fd5b60006130ea826127e5565b91506130f5836127e5565b925082613105576131046130b0565b5b828206905092915050565b7f4e487b7100000000000000000000000000000000000000000000000000000000600052601160045260246000fd5b600061314a826127e5565b9150613155836127e5565b925082820390508181111561316d5761316c613110565b5b92915050565b600061317e826127e5565b9150613189836127e5565b92508282019050808211156131a1576131a0613110565b5b92915050565b60006040820190506131bc600083018561285a565b6131c96020830184612970565b9392505050565b6000815190506131df816129d6565b92915050565b6000602082840312156131fb576131fa6125d4565b5b6000613209848285016131d0565b91505092915050565b600060208284031215613228576132276125d4565b5b600061323684828501612fbb565b91505092915050565b600061324a826127e5565b9150613255836127e5565b9250828202613263816127e5565b9150828204841483151761327a57613279613110565b5b5092915050565b600081905092915050565b600061329782612733565b6132a18185613281565b93506132b181856020860161274f565b80840191505092915050565b60006132c9828561328c565b91506132d5828461328c565b91508190509392505050565b7f4552433732313a207472616e736665722066726f6d20696e636f72726563742060008201527f6f776e6572000000000000000000000000000000000000000000000000000000602082015250565b600061333d60258361273e565b9150613348826132e1565b604082019050919050565b6000602082019050818103600083015261336c81613330565b9050919050565b7f4552433732313a207472616e7366657220746f20746865207a65726f2061646460008201527f7265737300000000000000000000000000000000000000000000000000000000602082015250565b60006133cf60248361273e565b91506133da82613373565b604082019050919050565b600060208201905081810360008301526133fe816133c2565b9050919050565b7f4552433732313a20617070726f766520746f2063616c6c657200000000000000600082015250565b600061343b60198361273e565b915061344682613405565b602082019050919050565b6000602082019050818103600083015261346a8161342e565b9050919050565b7f4552433732313a207472616e7366657220746f206e6f6e20455243373231526560008201527f63656976657220696d706c656d656e7465720000000000000000000000000000602082015250565b60006134cd60328361273e565b91506134d882613471565b604082019050919050565b600060208201905081810360008301526134fc816134c0565b9050919050565b7f4552433732313a206d696e7420746f20746865207a65726f2061646472657373600082015250565b600061353960208361273e565b915061354482613503565b602082019050919050565b600060208201905081810360008301526135688161352c565b9050919050565b7f4552433732313a20746f6b656e20616c7265616479206d696e74656400000000600082015250565b60006135a5601c8361273e565b91506135b08261356f565b602082019050919050565b600060208201905081810360008301526135d481613598565b9050919050565b600081519050919050565b600082825260208201905092915050565b6000613602826135db565b61360c81856135e6565b935061361c81856020860161274f565b61362581612779565b840191505092915050565b6000608082019050613645600083018761285a565b613652602083018661285a565b61365f6040830185612970565b818103606083015261367181846135f7565b905095945050505050565b60008151905061368b8161260a565b92915050565b6000602082840312156136a7576136a66125d4565b5b60006136b58482850161367c565b9150509291505056fea26469706673582212200c6de62b282c78de05e97ede79efa6e48669116b3d8c674f407b14dc194606b364736f6c63430008130033",
  "immutableReferences": {
    "3734": [
      {
        "length": 32,
        "start": 1342
      },
      {
        "length": 32,
        "start": 2648
      },
      {
        "length": 32,
        "start": 3385
      }
    ],
    "3737": [
      {
        "length": 32,
        "start": 4140
      },
      {
        "length": 32,
        "start": 4872
      },
      {
        "length": 32,
        "start": 5828
      }
    ],
    "3740": [
      {
        "length": 32,
        "start": 2074
      },
      {
        "length": 32,
        "start": 3217
      },
      {
        "length": 32,
        "start": 3959
      },
      {
        "length": 32,
        "start": 4702
      },
      {
        "length": 32,
        "start": 5446
      }
    ]
  },
  "source": "// SPDX-License-Identifier: MIT\npragma solidity ^0.8.17;\n\nimport \"@openzeppelin/contracts/token/ERC721/ERC721.sol\";\nimport \"@openzeppelin/contracts/utils/Counters.sol\";\nimport \"@openzeppelin/contracts/token/ERC20/IERC20.sol\";\nimport \"./interfaces/IPodcast.sol\";\nimport \"./interfaces/ISession.sol\";\n\ncontract RewardsContract is ERC721 {\n    using Counters for Counters.Counter;\n    Counters.Counter private _tokenIds;\n\n    IPodcastContract public immutable podcastContract;\n    ISessions public immutable sessionsContract;\n    IERC20 public immutable tokenContract;\n\n    constructor(\n        address _podcastContract,\n        address _sessionsContract,\n        address _verbalToken\n    ) ERC721(\"Verbal Rewards NFT\", \"RNFT\") {\n        podcastContract = IPodcastContract(_podcastContract);\n        sessionsContract = ISessions(_sessionsContract);\n        tokenContract = IERC20(_verbalToken);\n    }\n\n    //keeping count of rewards\n    mapping(address => uint) countOfUploadPodcastRewards;\n    mapping(address => uint) countOfSupportRewards;\n    mapping(address => uint) countOfAttendanceRewards;\n    mapping(address => uint) countOfMentoringRewards;\n\n    function checkAndReward(address _user) external {\n        // Check if the user uploaded a podcast\n        uint[] memory usersPodcasts = podcastContract.getUserPodcasts(_user);\n        if (\n            countOfUploadPodcastRewards[_user] != 0 &&\n            countOfUploadPodcastRewards[_user] % 30 == 0\n        ) {\n            //mint NFT for every 30 uploads\n            _mintNFT(_user);\n        }\n        if (usersPodcasts.length > countOfUploadPodcastRewards[_user]) {\n            //award 1 token for every podcast  upload\n            uint tokensEarned = usersPodcasts.length -\n                countOfUploadPodcastRewards[_user];\n            countOfUploadPodcastRewards[_user] += tokensEarned;\n            tokenContract.transfer(_user, tokensEarned);\n            return;\n        }\n\n        // Check if the user supported a podcast\n        uint userSupportCount = podcastContract.supportCount(_user);\n        if (\n            countOfSupportRewards[_user] != 0 &&\n            countOfSupportRewards[_user] % 20 == 0\n        ) {\n            //mint NFT for every 20 supports\n            _mintNFT(_user);\n        }\n        if (userSupportCount > countOfSupportRewards[_user]) {\n            //award 2 token for every support\n            uint tokensEarned = userSupportCount - countOfSupportRewards[_user];\n            countOfSupportRewards[_user] += ((tokensEarned) * 2);\n            tokenContract.transfer(_user, tokensEarned * 2);\n            return;\n        }\n\n        // Check if the user attended a session\n        uint userAttendance = sessionsContract.sessionsAttendedCount(_user);\n        if (\n            countOfAttendanceRewards[_user] != 0 &&\n            countOfAttendanceRewards[_user] % 10 == 0\n        ) {\n            //mint NFT for every 10 attendance\n            _mintNFT(_user);\n        }\n        if (userAttendance > countOfAttendanceRewards[_user]) {\n            //award 1 token for every attendance\n            uint tokensEarned = userAttendance -\n                countOfAttendanceRewards[_user];\n            countOfAttendanceRewards[_user] += tokensEarned;\n            tokenContract.transfer(_user, tokensEarned);\n            return;\n        }\n\n        // Check if the user mentored a session\n        uint userMentoringCount = sessionsContract.sessionsMentoredCount(_user);\n        if (\n            countOfMentoringRewards[_user] != 0 &&\n            countOfMentoringRewards[_user] % 12 == 0\n        ) {\n            //mint NFT for every 12 mentoring\n            _mintNFT(_user);\n        }\n        if (userMentoringCount > countOfMentoringRewards[_user]) {\n            //award 2 token for every mentoring\n            uint tokensEarned = userMentoringCount -\n                countOfMentoringRewards[_user];\n            countOfMentoringRewards[_user] += ((tokensEarned) * 2);\n            tokenContract.transfer(_user, tokensEarned * 2);\n            return;\n        }\n    }\n\n    function _mintNFT(address _user) internal {\n        _tokenIds.increment();\n        uint256 tokenId = _tokenIds.current();\n        _mint(_user, tokenId);\n    }\n\n    function getCountOfUploadPodcastRewards(\n        address userAddress\n    ) external view returns (uint) {\n        return countOfUploadPodcastRewards[userAddress];\n    }\n\n    function getCountOfSupportRewards(\n        address userAddress\n    ) external view returns (uint) {\n        return countOfSupportRewards[userAddress];\n    }\n\n    function getCountOfAttendanceRewards(\n        address userAddress\n    ) external view returns (uint) {\n        return countOfAttendanceRewards[userAddress];\n    }\n\n    function getCountOfMentoringRewards(\n        address userAddress\n    ) external view returns (uint) {\n        return countOfMentoringRewards[userAddress];\n    }\n}\n",
  "sourcePath": "/home/otaiki/Documents/smart-contract/contract-verbal/contracts/Rewards.sol",
  "compiler": {
    "name": "solc",
    "version": "0.8.19+commit.7dd6d404.Emscripten.clang"
  },
  "schemaVersion": "3.4.15",
  "updatedAt": "2023-08-21T22:00:13.871Z",
  "networkType": "ethereum",
  "devdoc": {
    "events": {
      "Approval(address,address,uint256)": {
        "details": "Emitted when `owner` enables `approved` to manage the `tokenId` token."
      },
      "ApprovalForAll(address,address,bool)": {
        "details": "Emitted when `owner` enables or disables (`approved`) `operator` to manage all of its assets."
      },
      "Transfer(address,address,uint256)": {
        "details": "Emitted when `tokenId` token is transferred from `from` to `to`."
      }
    },
    "kind": "dev",
    "methods": {
      "approve(address,uint256)": {
        "details": "See {IERC721-approve}."
      },
      "balanceOf(address)": {
        "details": "See {IERC721-balanceOf}."
      },
      "getApproved(uint256)": {
        "details": "See {IERC721-getApproved}."
      },
      "isApprovedForAll(address,address)": {
        "details": "See {IERC721-isApprovedForAll}."
      },
      "name()": {
        "details": "See {IERC721Metadata-name}."
      },
      "ownerOf(uint256)": {
        "details": "See {IERC721-ownerOf}."
      },
      "safeTransferFrom(address,address,uint256)": {
        "details": "See {IERC721-safeTransferFrom}."
      },
      "safeTransferFrom(address,address,uint256,bytes)": {
        "details": "See {IERC721-safeTransferFrom}."
      },
      "setApprovalForAll(address,bool)": {
        "details": "See {IERC721-setApprovalForAll}."
      },
      "supportsInterface(bytes4)": {
        "details": "See {IERC165-supportsInterface}."
      },
      "symbol()": {
        "details": "See {IERC721Metadata-symbol}."
      },
      "tokenURI(uint256)": {
        "details": "See {IERC721Metadata-tokenURI}."
      },
      "transferFrom(address,address,uint256)": {
        "details": "See {IERC721-transferFrom}."
      }
    },
    "version": 1
  },
  "userdoc": {
    "kind": "user",
    "methods": {},
    "version": 1
  }
}