{
  "_format": "hh-sol-artifact-1",
  "contractName": "Sessions",
  "sourceName": "contracts/Sessions.sol",
  "abi": [
    {
      "anonymous": false,
      "inputs": [
        {
          "indexed": true,
          "internalType": "uint256",
          "name": "sessionId",
          "type": "uint256"
        }
      ],
      "name": "SessionAccepted",
      "type": "event"
    },
    {
      "anonymous": false,
      "inputs": [
        {
          "indexed": true,
          "internalType": "uint256",
          "name": "sessionId",
          "type": "uint256"
        }
      ],
      "name": "SessionCancelled",
      "type": "event"
    },
    {
      "anonymous": false,
      "inputs": [
        {
          "indexed": true,
          "internalType": "address",
          "name": "mentor",
          "type": "address"
        },
        {
          "indexed": true,
          "internalType": "address",
          "name": "student",
          "type": "address"
        },
        {
          "indexed": false,
          "internalType": "uint256",
          "name": "fee",
          "type": "uint256"
        },
        {
          "indexed": false,
          "internalType": "string",
          "name": "meetingLink",
          "type": "string"
        },
        {
          "indexed": true,
          "internalType": "uint256",
          "name": "id",
          "type": "uint256"
        }
      ],
      "name": "SessionScheduled",
      "type": "event"
    },
    {
      "inputs": [
        {
          "internalType": "uint256",
          "name": "_sessionId",
          "type": "uint256"
        }
      ],
      "name": "acceptSession",
      "outputs": [],
      "stateMutability": "nonpayable",
      "type": "function"
    },
    {
      "inputs": [
        {
          "internalType": "address",
          "name": "",
          "type": "address"
        },
        {
          "internalType": "uint256",
          "name": "",
          "type": "uint256"
        }
      ],
      "name": "addressToSessions",
      "outputs": [
        {
          "internalType": "uint256",
          "name": "",
          "type": "uint256"
        }
      ],
      "stateMutability": "view",
      "type": "function"
    },
    {
      "inputs": [
        {
          "internalType": "uint256",
          "name": "",
          "type": "uint256"
        }
      ],
      "name": "allSessions",
      "outputs": [
        {
          "internalType": "address",
          "name": "mentor",
          "type": "address"
        },
        {
          "internalType": "address",
          "name": "student",
          "type": "address"
        },
        {
          "internalType": "bool",
          "name": "isAccepted",
          "type": "bool"
        },
        {
          "internalType": "uint256",
          "name": "timeStamp",
          "type": "uint256"
        },
        {
          "internalType": "string",
          "name": "meetingLink",
          "type": "string"
        },
        {
          "internalType": "uint256",
          "name": "paymentFee",
          "type": "uint256"
        },
        {
          "internalType": "uint256",
          "name": "sessionId",
          "type": "uint256"
        },
        {
          "internalType": "string",
          "name": "topic",
          "type": "string"
        }
      ],
      "stateMutability": "view",
      "type": "function"
    },
    {
      "inputs": [
        {
          "internalType": "uint256",
          "name": "_sessionId",
          "type": "uint256"
        }
      ],
      "name": "cancelSession",
      "outputs": [],
      "stateMutability": "nonpayable",
      "type": "function"
    },
    {
      "inputs": [
        {
          "internalType": "address",
          "name": "_addr",
          "type": "address"
        }
      ],
      "name": "fetchMentorsPrice",
      "outputs": [
        {
          "internalType": "uint256",
          "name": "",
          "type": "uint256"
        }
      ],
      "stateMutability": "view",
      "type": "function"
    },
    {
      "inputs": [
        {
          "internalType": "uint256",
          "name": "_sessionId",
          "type": "uint256"
        }
      ],
      "name": "getSessionDetails",
      "outputs": [
        {
          "components": [
            {
              "internalType": "address",
              "name": "mentor",
              "type": "address"
            },
            {
              "internalType": "address",
              "name": "student",
              "type": "address"
            },
            {
              "internalType": "bool",
              "name": "isAccepted",
              "type": "bool"
            },
            {
              "internalType": "uint256",
              "name": "timeStamp",
              "type": "uint256"
            },
            {
              "internalType": "string",
              "name": "meetingLink",
              "type": "string"
            },
            {
              "internalType": "uint256",
              "name": "paymentFee",
              "type": "uint256"
            },
            {
              "internalType": "uint256",
              "name": "sessionId",
              "type": "uint256"
            },
            {
              "internalType": "string",
              "name": "topic",
              "type": "string"
            }
          ],
          "internalType": "struct Sessions.Session",
          "name": "",
          "type": "tuple"
        }
      ],
      "stateMutability": "view",
      "type": "function"
    },
    {
      "inputs": [
        {
          "internalType": "address",
          "name": "_userAddress",
          "type": "address"
        }
      ],
      "name": "getUserSessions",
      "outputs": [
        {
          "internalType": "uint256[]",
          "name": "",
          "type": "uint256[]"
        }
      ],
      "stateMutability": "view",
      "type": "function"
    },
    {
      "inputs": [
        {
          "internalType": "uint256",
          "name": "_timeStamp",
          "type": "uint256"
        }
      ],
      "name": "isTimeFrameTaken",
      "outputs": [
        {
          "internalType": "bool",
          "name": "",
          "type": "bool"
        }
      ],
      "stateMutability": "view",
      "type": "function"
    },
    {
      "inputs": [
        {
          "internalType": "uint256",
          "name": "_amount",
          "type": "uint256"
        }
      ],
      "name": "registerMentorPrice",
      "outputs": [],
      "stateMutability": "nonpayable",
      "type": "function"
    },
    {
      "inputs": [
        {
          "internalType": "address",
          "name": "_mentor",
          "type": "address"
        },
        {
          "internalType": "uint256",
          "name": "_timestamp",
          "type": "uint256"
        },
        {
          "internalType": "string",
          "name": "_meetingLink",
          "type": "string"
        },
        {
          "internalType": "uint256",
          "name": "_paymentFee",
          "type": "uint256"
        },
        {
          "internalType": "string",
          "name": "_topic",
          "type": "string"
        }
      ],
      "name": "scheduleASession",
      "outputs": [],
      "stateMutability": "payable",
      "type": "function"
    },
    {
      "inputs": [
        {
          "internalType": "address",
          "name": "",
          "type": "address"
        }
      ],
      "name": "sessionsAttendedCount",
      "outputs": [
        {
          "internalType": "uint256",
          "name": "",
          "type": "uint256"
        }
      ],
      "stateMutability": "view",
      "type": "function"
    },
    {
      "inputs": [
        {
          "internalType": "address",
          "name": "",
          "type": "address"
        }
      ],
      "name": "sessionsMentoredCount",
      "outputs": [
        {
          "internalType": "uint256",
          "name": "",
          "type": "uint256"
        }
      ],
      "stateMutability": "view",
      "type": "function"
    },
    {
      "inputs": [
        {
          "internalType": "uint256",
          "name": "",
          "type": "uint256"
        }
      ],
      "name": "uintToSession",
      "outputs": [
        {
          "internalType": "address",
          "name": "mentor",
          "type": "address"
        },
        {
          "internalType": "address",
          "name": "student",
          "type": "address"
        },
        {
          "internalType": "bool",
          "name": "isAccepted",
          "type": "bool"
        },
        {
          "internalType": "uint256",
          "name": "timeStamp",
          "type": "uint256"
        },
        {
          "internalType": "string",
          "name": "meetingLink",
          "type": "string"
        },
        {
          "internalType": "uint256",
          "name": "paymentFee",
          "type": "uint256"
        },
        {
          "internalType": "uint256",
          "name": "sessionId",
          "type": "uint256"
        },
        {
          "internalType": "string",
          "name": "topic",
          "type": "string"
        }
      ],
      "stateMutability": "view",
      "type": "function"
    }
  ],
  "bytecode": "0x608060405234801561001057600080fd5b50612727806100206000396000f3fe6080604052600436106100c25760003560e01c80636564e5b01161007f578063d9cc134c11610059578063d9cc134c146102aa578063dfc59756146102ee578063e0510ad81461032b578063e27f937014610368576100c2565b80636564e5b0146101f3578063b435d1bf14610230578063ced348df1461026d576100c2565b806321f1cd7c146100c7578063223715dd1461010b5780632dc905f7146101485780633d3b329d1461017157806359d76a341461018d5780635a01e629146101ca575b600080fd5b3480156100d357600080fd5b506100ee60048036038101906100e9919061183f565b610391565b604051610102989796959493929190611967565b60405180910390f35b34801561011757600080fd5b50610132600480360381019061012d9190611a1f565b610536565b60405161013f9190611b0a565b60405180910390f35b34801561015457600080fd5b5061016f600480360381019061016a919061183f565b6105cd565b005b61018b60048036038101906101869190611c61565b610657565b005b34801561019957600080fd5b506101b460048036038101906101af919061183f565b610bd2565b6040516101c19190611e33565b60405180910390f35b3480156101d657600080fd5b506101f160048036038101906101ec919061183f565b610e09565b005b3480156101ff57600080fd5b5061021a60048036038101906102159190611a1f565b6110e5565b6040516102279190611e55565b60405180910390f35b34801561023c57600080fd5b5061025760048036038101906102529190611a1f565b6110fd565b6040516102649190611e55565b60405180910390f35b34801561027957600080fd5b50610294600480360381019061028f919061183f565b611115565b6040516102a19190611e70565b60405180910390f35b3480156102b657600080fd5b506102d160048036038101906102cc919061183f565b61117e565b6040516102e5989796959493929190611967565b60405180910390f35b3480156102fa57600080fd5b5061031560048036038101906103109190611e8b565b611333565b6040516103229190611e55565b60405180910390f35b34801561033757600080fd5b50610352600480360381019061034d9190611a1f565b611364565b60405161035f9190611e55565b60405180910390f35b34801561037457600080fd5b5061038f600480360381019061038a919061183f565b6113ad565b005b60036020528060005260406000206000915090508060000160009054906101000a900473ffffffffffffffffffffffffffffffffffffffff16908060010160009054906101000a900473ffffffffffffffffffffffffffffffffffffffff16908060010160149054906101000a900460ff169080600201549080600301805461041990611efa565b80601f016020809104026020016040519081016040528092919081815260200182805461044590611efa565b80156104925780601f1061046757610100808354040283529160200191610492565b820191906000526020600020905b81548152906001019060200180831161047557829003601f168201915b5050505050908060040154908060050154908060060180546104b390611efa565b80601f01602080910402602001604051908101604052809291908181526020018280546104df90611efa565b801561052c5780601f106105015761010080835404028352916020019161052c565b820191906000526020600020905b81548152906001019060200180831161050f57829003601f168201915b5050505050905088565b6060600260008373ffffffffffffffffffffffffffffffffffffffff1673ffffffffffffffffffffffffffffffffffffffff1681526020019081526020016000208054806020026020016040519081016040528092919081815260200182805480156105c157602002820191906000526020600020905b8154815260200190600101908083116105ad575b50505050509050919050565b60008103610610576040517f08c379a000000000000000000000000000000000000000000000000000000000815260040161060790611f77565b60405180910390fd5b80600660003373ffffffffffffffffffffffffffffffffffffffff1673ffffffffffffffffffffffffffffffffffffffff1681526020019081526020016000208190555050565b8361066181611115565b156106a1576040517f08c379a000000000000000000000000000000000000000000000000000000000815260040161069890611fe3565b60405180910390fd5b60006106ac87611364565b036106ec576040517f08c379a00000000000000000000000000000000000000000000000000000000081526004016106e39061204f565b60405180910390fd5b6106f586611364565b341015610737576040517f08c379a000000000000000000000000000000000000000000000000000000000815260040161072e906120bb565b60405180910390fd5b60006107436000611701565b90506000600360008381526020019081526020016000209050878160000160006101000a81548173ffffffffffffffffffffffffffffffffffffffff021916908373ffffffffffffffffffffffffffffffffffffffff160217905550338160010160006101000a81548173ffffffffffffffffffffffffffffffffffffffff021916908373ffffffffffffffffffffffffffffffffffffffff160217905550858160030190816107f39190612287565b50868160020181905550818160050181905550848160040181905550838160060190816108209190612287565b5060018190806001815401808255809150506001900390600052602060002090600702016000909190919091506000820160009054906101000a900473ffffffffffffffffffffffffffffffffffffffff168160000160006101000a81548173ffffffffffffffffffffffffffffffffffffffff021916908373ffffffffffffffffffffffffffffffffffffffff1602179055506001820160009054906101000a900473ffffffffffffffffffffffffffffffffffffffff168160010160006101000a81548173ffffffffffffffffffffffffffffffffffffffff021916908373ffffffffffffffffffffffffffffffffffffffff1602179055506001820160149054906101000a900460ff168160010160146101000a81548160ff0219169083151502179055506002820154816002015560038201816003019081610966919061236f565b5060048201548160040155600582015481600501556006820181600601908161098f919061236f565b505050600260003373ffffffffffffffffffffffffffffffffffffffff1673ffffffffffffffffffffffffffffffffffffffff16815260200190815260200160002082908060018154018082558091505060019003906000526020600020016000909190919091505580600360008481526020019081526020016000206000820160009054906101000a900473ffffffffffffffffffffffffffffffffffffffff168160000160006101000a81548173ffffffffffffffffffffffffffffffffffffffff021916908373ffffffffffffffffffffffffffffffffffffffff1602179055506001820160009054906101000a900473ffffffffffffffffffffffffffffffffffffffff168160010160006101000a81548173ffffffffffffffffffffffffffffffffffffffff021916908373ffffffffffffffffffffffffffffffffffffffff1602179055506001820160149054906101000a900460ff168160010160146101000a81548160ff0219169083151502179055506002820154816002015560038201816003019081610b25919061236f565b50600482015481600401556005820154816005015560068201816006019081610b4e919061236f565b50905050610b5c600061170f565b813373ffffffffffffffffffffffffffffffffffffffff168973ffffffffffffffffffffffffffffffffffffffff167f07906354c75f76afc5bcb17c50f101932e4e96a3323ea77c07d6b35381b57e0f84600401548a604051610bc0929190612457565b60405180910390a45050505050505050565b610bda611725565b60036000838152602001908152602001600020604051806101000160405290816000820160009054906101000a900473ffffffffffffffffffffffffffffffffffffffff1673ffffffffffffffffffffffffffffffffffffffff1673ffffffffffffffffffffffffffffffffffffffff1681526020016001820160009054906101000a900473ffffffffffffffffffffffffffffffffffffffff1673ffffffffffffffffffffffffffffffffffffffff1673ffffffffffffffffffffffffffffffffffffffff1681526020016001820160149054906101000a900460ff1615151515815260200160028201548152602001600382018054610cda90611efa565b80601f0160208091040260200160405190810160405280929190818152602001828054610d0690611efa565b8015610d535780601f10610d2857610100808354040283529160200191610d53565b820191906000526020600020905b815481529060010190602001808311610d3657829003601f168201915b505050505081526020016004820154815260200160058201548152602001600682018054610d8090611efa565b80601f0160208091040260200160405190810160405280929190818152602001828054610dac90611efa565b8015610df95780601f10610dce57610100808354040283529160200191610df9565b820191906000526020600020905b815481529060010190602001808311610ddc57829003601f168201915b5050505050815250509050919050565b60006003600083815260200190815260200160002090503373ffffffffffffffffffffffffffffffffffffffff168160000160009054906101000a900473ffffffffffffffffffffffffffffffffffffffff1673ffffffffffffffffffffffffffffffffffffffff1614610eb2576040517f08c379a0000000000000000000000000000000000000000000000000000000008152600401610ea9906124f9565b60405180910390fd5b600015158160010160149054906101000a900460ff16151514610f0a576040517f08c379a0000000000000000000000000000000000000000000000000000000008152600401610f0190612565565b60405180910390fd5b60018160010160146101000a81548160ff0219169083151502179055508060000160009054906101000a900473ffffffffffffffffffffffffffffffffffffffff1673ffffffffffffffffffffffffffffffffffffffff166108fc610f928360000160009054906101000a900473ffffffffffffffffffffffffffffffffffffffff16611364565b9081150290604051600060405180830381858888f19350505050158015610fbd573d6000803e3d6000fd5b506001600560008360000160009054906101000a900473ffffffffffffffffffffffffffffffffffffffff1673ffffffffffffffffffffffffffffffffffffffff1673ffffffffffffffffffffffffffffffffffffffff168152602001908152602001600020600082825461103291906125b4565b925050819055506001600460008360010160009054906101000a900473ffffffffffffffffffffffffffffffffffffffff1673ffffffffffffffffffffffffffffffffffffffff1673ffffffffffffffffffffffffffffffffffffffff16815260200190815260200160002060008282546110ad91906125b4565b92505081905550817fa8e222f86c5c12a635a413c7ff6fc4f543bdabcaaa7a0048a6e1913faac4496760405160405180910390a25050565b60046020528060005260406000206000915090505481565b60056020528060005260406000206000915090505481565b600080600090505b60018054905081101561117357826001828154811061113f5761113e6125e8565b5b90600052602060002090600702016002015403611160576001915050611179565b808061116b90612617565b91505061111d565b50600090505b919050565b6001818154811061118e57600080fd5b90600052602060002090600702016000915090508060000160009054906101000a900473ffffffffffffffffffffffffffffffffffffffff16908060010160009054906101000a900473ffffffffffffffffffffffffffffffffffffffff16908060010160149054906101000a900460ff169080600201549080600301805461121690611efa565b80601f016020809104026020016040519081016040528092919081815260200182805461124290611efa565b801561128f5780601f106112645761010080835404028352916020019161128f565b820191906000526020600020905b81548152906001019060200180831161127257829003601f168201915b5050505050908060040154908060050154908060060180546112b090611efa565b80601f01602080910402602001604051908101604052809291908181526020018280546112dc90611efa565b80156113295780601f106112fe57610100808354040283529160200191611329565b820191906000526020600020905b81548152906001019060200180831161130c57829003601f168201915b5050505050905088565b6002602052816000526040600020818154811061134f57600080fd5b90600052602060002001600091509150505481565b6000600660008373ffffffffffffffffffffffffffffffffffffffff1673ffffffffffffffffffffffffffffffffffffffff168152602001908152602001600020549050919050565b60006003600083815260200190815260200160002090503373ffffffffffffffffffffffffffffffffffffffff168160010160009054906101000a900473ffffffffffffffffffffffffffffffffffffffff1673ffffffffffffffffffffffffffffffffffffffff16148061147157503373ffffffffffffffffffffffffffffffffffffffff168160000160009054906101000a900473ffffffffffffffffffffffffffffffffffffffff1673ffffffffffffffffffffffffffffffffffffffff16145b6114b0576040517f08c379a00000000000000000000000000000000000000000000000000000000081526004016114a7906126d1565b60405180910390fd5b8060000160009054906101000a900473ffffffffffffffffffffffffffffffffffffffff1673ffffffffffffffffffffffffffffffffffffffff163373ffffffffffffffffffffffffffffffffffffffff16036115295760008160010160146101000a81548160ff0219169083151502179055506116d0565b8060010160009054906101000a900473ffffffffffffffffffffffffffffffffffffffff1673ffffffffffffffffffffffffffffffffffffffff166108fc6115948360000160009054906101000a900473ffffffffffffffffffffffffffffffffffffffff16611364565b9081150290604051600060405180830381858888f193505050501580156115bf573d6000803e3d6000fd5b50600260003373ffffffffffffffffffffffffffffffffffffffff1673ffffffffffffffffffffffffffffffffffffffff1681526020019081526020016000208281548110611611576116106125e8565b5b906000526020600020016000905560036000838152602001908152602001600020600080820160006101000a81549073ffffffffffffffffffffffffffffffffffffffff02191690556001820160006101000a81549073ffffffffffffffffffffffffffffffffffffffff02191690556001820160146101000a81549060ff021916905560028201600090556003820160006116ad9190611798565b600482016000905560058201600090556006820160006116cd9190611798565b50505b817f83db11557caa3518e394ee3589033b042b4f03f0ed0495a829208e71bfa37f0560405160405180910390a25050565b600081600001549050919050565b6001816000016000828254019250508190555050565b604051806101000160405280600073ffffffffffffffffffffffffffffffffffffffff168152602001600073ffffffffffffffffffffffffffffffffffffffff16815260200160001515815260200160008152602001606081526020016000815260200160008152602001606081525090565b5080546117a490611efa565b6000825580601f106117b657506117d5565b601f0160209004906000526020600020908101906117d491906117d8565b5b50565b5b808211156117f15760008160009055506001016117d9565b5090565b6000604051905090565b600080fd5b600080fd5b6000819050919050565b61181c81611809565b811461182757600080fd5b50565b60008135905061183981611813565b92915050565b600060208284031215611855576118546117ff565b5b60006118638482850161182a565b91505092915050565b600073ffffffffffffffffffffffffffffffffffffffff82169050919050565b60006118978261186c565b9050919050565b6118a78161188c565b82525050565b60008115159050919050565b6118c2816118ad565b82525050565b6118d181611809565b82525050565b600081519050919050565b600082825260208201905092915050565b60005b838110156119115780820151818401526020810190506118f6565b60008484015250505050565b6000601f19601f8301169050919050565b6000611939826118d7565b61194381856118e2565b93506119538185602086016118f3565b61195c8161191d565b840191505092915050565b60006101008201905061197d600083018b61189e565b61198a602083018a61189e565b61199760408301896118b9565b6119a460608301886118c8565b81810360808301526119b6818761192e565b90506119c560a08301866118c8565b6119d260c08301856118c8565b81810360e08301526119e4818461192e565b90509998505050505050505050565b6119fc8161188c565b8114611a0757600080fd5b50565b600081359050611a19816119f3565b92915050565b600060208284031215611a3557611a346117ff565b5b6000611a4384828501611a0a565b91505092915050565b600081519050919050565b600082825260208201905092915050565b6000819050602082019050919050565b611a8181611809565b82525050565b6000611a938383611a78565b60208301905092915050565b6000602082019050919050565b6000611ab782611a4c565b611ac18185611a57565b9350611acc83611a68565b8060005b83811015611afd578151611ae48882611a87565b9750611aef83611a9f565b925050600181019050611ad0565b5085935050505092915050565b60006020820190508181036000830152611b248184611aac565b905092915050565b600080fd5b600080fd5b7f4e487b7100000000000000000000000000000000000000000000000000000000600052604160045260246000fd5b611b6e8261191d565b810181811067ffffffffffffffff82111715611b8d57611b8c611b36565b5b80604052505050565b6000611ba06117f5565b9050611bac8282611b65565b919050565b600067ffffffffffffffff821115611bcc57611bcb611b36565b5b611bd58261191d565b9050602081019050919050565b82818337600083830152505050565b6000611c04611bff84611bb1565b611b96565b905082815260208101848484011115611c2057611c1f611b31565b5b611c2b848285611be2565b509392505050565b600082601f830112611c4857611c47611b2c565b5b8135611c58848260208601611bf1565b91505092915050565b600080600080600060a08688031215611c7d57611c7c6117ff565b5b6000611c8b88828901611a0a565b9550506020611c9c8882890161182a565b945050604086013567ffffffffffffffff811115611cbd57611cbc611804565b5b611cc988828901611c33565b9350506060611cda8882890161182a565b925050608086013567ffffffffffffffff811115611cfb57611cfa611804565b5b611d0788828901611c33565b9150509295509295909350565b611d1d8161188c565b82525050565b611d2c816118ad565b82525050565b600082825260208201905092915050565b6000611d4e826118d7565b611d588185611d32565b9350611d688185602086016118f3565b611d718161191d565b840191505092915050565b600061010083016000830151611d956000860182611d14565b506020830151611da86020860182611d14565b506040830151611dbb6040860182611d23565b506060830151611dce6060860182611a78565b5060808301518482036080860152611de68282611d43565b91505060a0830151611dfb60a0860182611a78565b5060c0830151611e0e60c0860182611a78565b5060e083015184820360e0860152611e268282611d43565b9150508091505092915050565b60006020820190508181036000830152611e4d8184611d7c565b905092915050565b6000602082019050611e6a60008301846118c8565b92915050565b6000602082019050611e8560008301846118b9565b92915050565b60008060408385031215611ea257611ea16117ff565b5b6000611eb085828601611a0a565b9250506020611ec18582860161182a565b9150509250929050565b7f4e487b7100000000000000000000000000000000000000000000000000000000600052602260045260246000fd5b60006002820490506001821680611f1257607f821691505b602082108103611f2557611f24611ecb565b5b50919050565b7f43416e7420736574207a65726f20616d6f756e74000000000000000000000000600082015250565b6000611f616014836118e2565b9150611f6c82611f2b565b602082019050919050565b60006020820190508181036000830152611f9081611f54565b9050919050565b7f54696d656672616d6520697320616c72656164792074616b656e000000000000600082015250565b6000611fcd601a836118e2565b9150611fd882611f97565b602082019050919050565b60006020820190508181036000830152611ffc81611fc0565b9050919050565b7f496e76616c6964204d656e746f72000000000000000000000000000000000000600082015250565b6000612039600e836118e2565b915061204482612003565b602082019050919050565b600060208201905081810360008301526120688161202c565b9050919050565b7f43616e7420706179206d656e746f720000000000000000000000000000000000600082015250565b60006120a5600f836118e2565b91506120b08261206f565b602082019050919050565b600060208201905081810360008301526120d481612098565b9050919050565b60008190508160005260206000209050919050565b60006020601f8301049050919050565b600082821b905092915050565b60006008830261213d7fffffffffffffffffffffffffffffffffffffffffffffffffffffffffffffffff82612100565b6121478683612100565b95508019841693508086168417925050509392505050565b6000819050919050565b600061218461217f61217a84611809565b61215f565b611809565b9050919050565b6000819050919050565b61219e83612169565b6121b26121aa8261218b565b84845461210d565b825550505050565b600090565b6121c76121ba565b6121d2818484612195565b505050565b5b818110156121f6576121eb6000826121bf565b6001810190506121d8565b5050565b601f82111561223b5761220c816120db565b612215846120f0565b81016020851015612224578190505b612238612230856120f0565b8301826121d7565b50505b505050565b600082821c905092915050565b600061225e60001984600802612240565b1980831691505092915050565b6000612277838361224d565b9150826002028217905092915050565b612290826118d7565b67ffffffffffffffff8111156122a9576122a8611b36565b5b6122b38254611efa565b6122be8282856121fa565b600060209050601f8311600181146122f157600084156122df578287015190505b6122e9858261226b565b865550612351565b601f1984166122ff866120db565b60005b8281101561232757848901518255600182019150602085019450602081019050612302565b868310156123445784890151612340601f89168261224d565b8355505b6001600288020188555050505b505050505050565b60008154905061236881611efa565b9050919050565b81810361237d575050612455565b61238682612359565b67ffffffffffffffff81111561239f5761239e611b36565b5b6123a98254611efa565b6123b48282856121fa565b6000601f8311600181146123e357600084156123d1578287015490505b6123db858261226b565b86555061244e565b601f1984166123f1876120db565b96506123fc866120db565b60005b82811015612424578489015482556001820191506001850194506020810190506123ff565b86831015612441578489015461243d601f89168261224d565b8355505b6001600288020188555050505b5050505050505b565b600060408201905061246c60008301856118c8565b818103602083015261247e818461192e565b90509392505050565b7f596f7520617265206e6f7420746865206d656e746f72206f662074686973207360008201527f657373696f6e0000000000000000000000000000000000000000000000000000602082015250565b60006124e36026836118e2565b91506124ee82612487565b604082019050919050565b60006020820190508181036000830152612512816124d6565b9050919050565b7f416c726561647920616363657074656400000000000000000000000000000000600082015250565b600061254f6010836118e2565b915061255a82612519565b602082019050919050565b6000602082019050818103600083015261257e81612542565b9050919050565b7f4e487b7100000000000000000000000000000000000000000000000000000000600052601160045260246000fd5b60006125bf82611809565b91506125ca83611809565b92508282019050808211156125e2576125e1612585565b5b92915050565b7f4e487b7100000000000000000000000000000000000000000000000000000000600052603260045260246000fd5b600061262282611809565b91507fffffffffffffffffffffffffffffffffffffffffffffffffffffffffffffffff820361265457612653612585565b5b600182019050919050565b7f596f7520617265206e6f7420617574686f72697a656420746f206d616b65206360008201527f68616e67657320746f20746869732073657373696f6e00000000000000000000602082015250565b60006126bb6036836118e2565b91506126c68261265f565b604082019050919050565b600060208201905081810360008301526126ea816126ae565b905091905056fea2646970667358221220f8f44e43de607a1207f2bfff94f5bd1ecc69a34b284664d6b8e92b5cdbda096064736f6c63430008130033",
  "linkReferences": {},
  "deployedLinkReferences": {}
}