{
  "contractName": "Sessions",
  "abi": [
    {
      "anonymous": false,
      "inputs": [
        {
          "indexed": true,
          "internalType": "uint256",
          "name": "sessionId",
          "type": "uint256"
        }
      ],
      "name": "SessionAccepted",
      "type": "event"
    },
    {
      "anonymous": false,
      "inputs": [
        {
          "indexed": true,
          "internalType": "uint256",
          "name": "sessionId",
          "type": "uint256"
        }
      ],
      "name": "SessionCancelled",
      "type": "event"
    },
    {
      "anonymous": false,
      "inputs": [
        {
          "indexed": true,
          "internalType": "address",
          "name": "mentor",
          "type": "address"
        },
        {
          "indexed": true,
          "internalType": "address",
          "name": "student",
          "type": "address"
        },
        {
          "indexed": false,
          "internalType": "uint256",
          "name": "fee",
          "type": "uint256"
        },
        {
          "indexed": false,
          "internalType": "string",
          "name": "meetingLink",
          "type": "string"
        },
        {
          "indexed": true,
          "internalType": "uint256",
          "name": "id",
          "type": "uint256"
        }
      ],
      "name": "SessionScheduled",
      "type": "event"
    },
    {
      "inputs": [
        {
          "internalType": "address",
          "name": "",
          "type": "address"
        },
        {
          "internalType": "uint256",
          "name": "",
          "type": "uint256"
        }
      ],
      "name": "addressToSessions",
      "outputs": [
        {
          "internalType": "uint256",
          "name": "",
          "type": "uint256"
        }
      ],
      "stateMutability": "view",
      "type": "function",
      "constant": true
    },
    {
      "inputs": [
        {
          "internalType": "uint256",
          "name": "",
          "type": "uint256"
        }
      ],
      "name": "allSessions",
      "outputs": [
        {
          "internalType": "address",
          "name": "mentor",
          "type": "address"
        },
        {
          "internalType": "address",
          "name": "student",
          "type": "address"
        },
        {
          "internalType": "bool",
          "name": "isAccepted",
          "type": "bool"
        },
        {
          "internalType": "uint256",
          "name": "timeStamp",
          "type": "uint256"
        },
        {
          "internalType": "string",
          "name": "meetingLink",
          "type": "string"
        },
        {
          "internalType": "uint256",
          "name": "paymentFee",
          "type": "uint256"
        },
        {
          "internalType": "uint256",
          "name": "sessionId",
          "type": "uint256"
        }
      ],
      "stateMutability": "view",
      "type": "function",
      "constant": true
    },
    {
      "inputs": [
        {
          "internalType": "address",
          "name": "",
          "type": "address"
        }
      ],
      "name": "sessionsAttendedCount",
      "outputs": [
        {
          "internalType": "uint256",
          "name": "",
          "type": "uint256"
        }
      ],
      "stateMutability": "view",
      "type": "function",
      "constant": true
    },
    {
      "inputs": [
        {
          "internalType": "address",
          "name": "",
          "type": "address"
        }
      ],
      "name": "sessionsMentoredCount",
      "outputs": [
        {
          "internalType": "uint256",
          "name": "",
          "type": "uint256"
        }
      ],
      "stateMutability": "view",
      "type": "function",
      "constant": true
    },
    {
      "inputs": [
        {
          "internalType": "uint256",
          "name": "",
          "type": "uint256"
        }
      ],
      "name": "uintToSession",
      "outputs": [
        {
          "internalType": "address",
          "name": "mentor",
          "type": "address"
        },
        {
          "internalType": "address",
          "name": "student",
          "type": "address"
        },
        {
          "internalType": "bool",
          "name": "isAccepted",
          "type": "bool"
        },
        {
          "internalType": "uint256",
          "name": "timeStamp",
          "type": "uint256"
        },
        {
          "internalType": "string",
          "name": "meetingLink",
          "type": "string"
        },
        {
          "internalType": "uint256",
          "name": "paymentFee",
          "type": "uint256"
        },
        {
          "internalType": "uint256",
          "name": "sessionId",
          "type": "uint256"
        }
      ],
      "stateMutability": "view",
      "type": "function",
      "constant": true
    },
    {
      "inputs": [
        {
          "internalType": "uint256",
          "name": "_timeStamp",
          "type": "uint256"
        }
      ],
      "name": "isTimeFrameTaken",
      "outputs": [
        {
          "internalType": "bool",
          "name": "",
          "type": "bool"
        }
      ],
      "stateMutability": "view",
      "type": "function",
      "constant": true
    },
    {
      "inputs": [
        {
          "internalType": "address",
          "name": "_mentor",
          "type": "address"
        },
        {
          "internalType": "uint256",
          "name": "_timestamp",
          "type": "uint256"
        },
        {
          "internalType": "string",
          "name": "_meetingLink",
          "type": "string"
        }
      ],
      "name": "scheduleASession",
      "outputs": [],
      "stateMutability": "payable",
      "type": "function",
      "payable": true
    },
    {
      "inputs": [
        {
          "internalType": "uint256",
          "name": "_sessionId",
          "type": "uint256"
        }
      ],
      "name": "cancelSession",
      "outputs": [],
      "stateMutability": "nonpayable",
      "type": "function"
    },
    {
      "inputs": [
        {
          "internalType": "uint256",
          "name": "_sessionId",
          "type": "uint256"
        }
      ],
      "name": "acceptSession",
      "outputs": [],
      "stateMutability": "nonpayable",
      "type": "function"
    },
    {
      "inputs": [
        {
          "internalType": "uint256",
          "name": "_amount",
          "type": "uint256"
        }
      ],
      "name": "registerMentorPrice",
      "outputs": [],
      "stateMutability": "nonpayable",
      "type": "function"
    },
    {
      "inputs": [
        {
          "internalType": "address",
          "name": "_addr",
          "type": "address"
        }
      ],
      "name": "fetchMentorsPrice",
      "outputs": [
        {
          "internalType": "uint256",
          "name": "",
          "type": "uint256"
        }
      ],
      "stateMutability": "view",
      "type": "function",
      "constant": true
    },
    {
      "inputs": [
        {
          "internalType": "address",
          "name": "_userAddress",
          "type": "address"
        }
      ],
      "name": "getUserSessions",
      "outputs": [
        {
          "internalType": "uint256[]",
          "name": "",
          "type": "uint256[]"
        }
      ],
      "stateMutability": "view",
      "type": "function",
      "constant": true
    },
    {
      "inputs": [
        {
          "internalType": "uint256",
          "name": "_sessionId",
          "type": "uint256"
        }
      ],
      "name": "getSessionDetails",
      "outputs": [
        {
          "components": [
            {
              "internalType": "address",
              "name": "mentor",
              "type": "address"
            },
            {
              "internalType": "address",
              "name": "student",
              "type": "address"
            },
            {
              "internalType": "bool",
              "name": "isAccepted",
              "type": "bool"
            },
            {
              "internalType": "uint256",
              "name": "timeStamp",
              "type": "uint256"
            },
            {
              "internalType": "string",
              "name": "meetingLink",
              "type": "string"
            },
            {
              "internalType": "uint256",
              "name": "paymentFee",
              "type": "uint256"
            },
            {
              "internalType": "uint256",
              "name": "sessionId",
              "type": "uint256"
            }
          ],
          "internalType": "struct Sessions.Session",
          "name": "",
          "type": "tuple"
        }
      ],
      "stateMutability": "view",
      "type": "function",
      "constant": true
    }
  ],
  "bytecode": "0x608060405234801561001057600080fd5b506124a2806100206000396000f3fe6080604052600436106100c25760003560e01c80637ec704061161007f578063d9cc134c11610059578063d9cc134c146102a9578063dfc59756146102ec578063e0510ad814610329578063e27f937014610366576100c2565b80637ec7040614610213578063b435d1bf1461022f578063ced348df1461026c576100c2565b806321f1cd7c146100c7578063223715dd1461010a5780632dc905f71461014757806359d76a34146101705780635a01e629146101ad5780636564e5b0146101d6575b600080fd5b3480156100d357600080fd5b506100ee60048036038101906100e9919061162f565b61038f565b6040516101019796959493929190611757565b60405180910390f35b34801561011657600080fd5b50610131600480360381019061012c91906117f9565b6104a6565b60405161013e91906118e4565b60405180910390f35b34801561015357600080fd5b5061016e6004803603810190610169919061162f565b61053d565b005b34801561017c57600080fd5b506101976004803603810190610192919061162f565b6105c7565b6040516101a49190611a0a565b60405180910390f35b3480156101b957600080fd5b506101d460048036038101906101cf919061162f565b61076b565b005b3480156101e257600080fd5b506101fd60048036038101906101f891906117f9565b610a47565b60405161020a9190611a2c565b60405180910390f35b61022d60048036038101906102289190611b7c565b610a5f565b005b34801561023b57600080fd5b50610256600480360381019061025191906117f9565b610f93565b6040516102639190611a2c565b60405180910390f35b34801561027857600080fd5b50610293600480360381019061028e919061162f565b610fab565b6040516102a09190611beb565b60405180910390f35b3480156102b557600080fd5b506102d060048036038101906102cb919061162f565b611014565b6040516102e39796959493929190611757565b60405180910390f35b3480156102f857600080fd5b50610313600480360381019061030e9190611c06565b61113b565b6040516103209190611a2c565b60405180910390f35b34801561033557600080fd5b50610350600480360381019061034b91906117f9565b61116c565b60405161035d9190611a2c565b60405180910390f35b34801561037257600080fd5b5061038d6004803603810190610388919061162f565b6111b5565b005b60036020528060005260406000206000915090508060000160009054906101000a900473ffffffffffffffffffffffffffffffffffffffff16908060010160009054906101000a900473ffffffffffffffffffffffffffffffffffffffff16908060010160149054906101000a900460ff169080600201549080600301805461041790611c75565b80601f016020809104026020016040519081016040528092919081815260200182805461044390611c75565b80156104905780601f1061046557610100808354040283529160200191610490565b820191906000526020600020905b81548152906001019060200180831161047357829003601f168201915b5050505050908060040154908060050154905087565b6060600260008373ffffffffffffffffffffffffffffffffffffffff1673ffffffffffffffffffffffffffffffffffffffff16815260200190815260200160002080548060200260200160405190810160405280929190818152602001828054801561053157602002820191906000526020600020905b81548152602001906001019080831161051d575b50505050509050919050565b60008103610580576040517f08c379a000000000000000000000000000000000000000000000000000000000815260040161057790611cf2565b60405180910390fd5b80600660003373ffffffffffffffffffffffffffffffffffffffff1673ffffffffffffffffffffffffffffffffffffffff1681526020019081526020016000208190555050565b6105cf61151d565b600360008381526020019081526020016000206040518060e00160405290816000820160009054906101000a900473ffffffffffffffffffffffffffffffffffffffff1673ffffffffffffffffffffffffffffffffffffffff1673ffffffffffffffffffffffffffffffffffffffff1681526020016001820160009054906101000a900473ffffffffffffffffffffffffffffffffffffffff1673ffffffffffffffffffffffffffffffffffffffff1673ffffffffffffffffffffffffffffffffffffffff1681526020016001820160149054906101000a900460ff16151515158152602001600282015481526020016003820180546106ce90611c75565b80601f01602080910402602001604051908101604052809291908181526020018280546106fa90611c75565b80156107475780601f1061071c57610100808354040283529160200191610747565b820191906000526020600020905b81548152906001019060200180831161072a57829003601f168201915b50505050508152602001600482015481526020016005820154815250509050919050565b60006003600083815260200190815260200160002090503373ffffffffffffffffffffffffffffffffffffffff168160000160009054906101000a900473ffffffffffffffffffffffffffffffffffffffff1673ffffffffffffffffffffffffffffffffffffffff1614610814576040517f08c379a000000000000000000000000000000000000000000000000000000000815260040161080b90611d84565b60405180910390fd5b600015158160010160149054906101000a900460ff1615151461086c576040517f08c379a000000000000000000000000000000000000000000000000000000000815260040161086390611df0565b60405180910390fd5b60018160010160146101000a81548160ff0219169083151502179055508060000160009054906101000a900473ffffffffffffffffffffffffffffffffffffffff1673ffffffffffffffffffffffffffffffffffffffff166108fc6108f48360000160009054906101000a900473ffffffffffffffffffffffffffffffffffffffff1661116c565b9081150290604051600060405180830381858888f1935050505015801561091f573d6000803e3d6000fd5b506001600560008360000160009054906101000a900473ffffffffffffffffffffffffffffffffffffffff1673ffffffffffffffffffffffffffffffffffffffff1673ffffffffffffffffffffffffffffffffffffffff16815260200190815260200160002060008282546109949190611e3f565b925050819055506001600460008360010160009054906101000a900473ffffffffffffffffffffffffffffffffffffffff1673ffffffffffffffffffffffffffffffffffffffff1673ffffffffffffffffffffffffffffffffffffffff1681526020019081526020016000206000828254610a0f9190611e3f565b92505081905550817fa8e222f86c5c12a635a413c7ff6fc4f543bdabcaaa7a0048a6e1913faac4496760405160405180910390a25050565b60046020528060005260406000206000915090505481565b81610a6981610fab565b15610aa9576040517f08c379a0000000000000000000000000000000000000000000000000000000008152600401610aa090611ebf565b60405180910390fd5b6000610ab48561116c565b03610af4576040517f08c379a0000000000000000000000000000000000000000000000000000000008152600401610aeb90611f2b565b60405180910390fd5b610afd8461116c565b341015610b3f576040517f08c379a0000000000000000000000000000000000000000000000000000000008152600401610b3690611f97565b60405180910390fd5b6000610b4b60006114f9565b90506000600360008381526020019081526020016000209050858160000160006101000a81548173ffffffffffffffffffffffffffffffffffffffff021916908373ffffffffffffffffffffffffffffffffffffffff160217905550338160010160006101000a81548173ffffffffffffffffffffffffffffffffffffffff021916908373ffffffffffffffffffffffffffffffffffffffff16021790555083816003019081610bfb9190612163565b5084816002018190555081816005018190555060018190806001815401808255809150506001900390600052602060002090600602016000909190919091506000820160009054906101000a900473ffffffffffffffffffffffffffffffffffffffff168160000160006101000a81548173ffffffffffffffffffffffffffffffffffffffff021916908373ffffffffffffffffffffffffffffffffffffffff1602179055506001820160009054906101000a900473ffffffffffffffffffffffffffffffffffffffff168160010160006101000a81548173ffffffffffffffffffffffffffffffffffffffff021916908373ffffffffffffffffffffffffffffffffffffffff1602179055506001820160149054906101000a900460ff168160010160146101000a81548160ff0219169083151502179055506002820154816002015560038201816003019081610d53919061224b565b5060048201548160040155600582015481600501555050600260003373ffffffffffffffffffffffffffffffffffffffff1673ffffffffffffffffffffffffffffffffffffffff16815260200190815260200160002082908060018154018082558091505060019003906000526020600020016000909190919091505580600360008481526020019081526020016000206000820160009054906101000a900473ffffffffffffffffffffffffffffffffffffffff168160000160006101000a81548173ffffffffffffffffffffffffffffffffffffffff021916908373ffffffffffffffffffffffffffffffffffffffff1602179055506001820160009054906101000a900473ffffffffffffffffffffffffffffffffffffffff168160010160006101000a81548173ffffffffffffffffffffffffffffffffffffffff021916908373ffffffffffffffffffffffffffffffffffffffff1602179055506001820160149054906101000a900460ff168160010160146101000a81548160ff0219169083151502179055506002820154816002015560038201816003019081610efd919061224b565b506004820154816004015560058201548160050155905050610f1f6000611507565b813373ffffffffffffffffffffffffffffffffffffffff168773ffffffffffffffffffffffffffffffffffffffff167f07906354c75f76afc5bcb17c50f101932e4e96a3323ea77c07d6b35381b57e0f846004015488604051610f83929190612333565b60405180910390a4505050505050565b60056020528060005260406000206000915090505481565b600080600090505b600180549050811015611009578260018281548110610fd557610fd4612363565b5b90600052602060002090600602016002015403610ff657600191505061100f565b808061100190612392565b915050610fb3565b50600090505b919050565b6001818154811061102457600080fd5b90600052602060002090600602016000915090508060000160009054906101000a900473ffffffffffffffffffffffffffffffffffffffff16908060010160009054906101000a900473ffffffffffffffffffffffffffffffffffffffff16908060010160149054906101000a900460ff16908060020154908060030180546110ac90611c75565b80601f01602080910402602001604051908101604052809291908181526020018280546110d890611c75565b80156111255780601f106110fa57610100808354040283529160200191611125565b820191906000526020600020905b81548152906001019060200180831161110857829003601f168201915b5050505050908060040154908060050154905087565b6002602052816000526040600020818154811061115757600080fd5b90600052602060002001600091509150505481565b6000600660008373ffffffffffffffffffffffffffffffffffffffff1673ffffffffffffffffffffffffffffffffffffffff168152602001908152602001600020549050919050565b60006003600083815260200190815260200160002090503373ffffffffffffffffffffffffffffffffffffffff168160010160009054906101000a900473ffffffffffffffffffffffffffffffffffffffff1673ffffffffffffffffffffffffffffffffffffffff16148061127957503373ffffffffffffffffffffffffffffffffffffffff168160000160009054906101000a900473ffffffffffffffffffffffffffffffffffffffff1673ffffffffffffffffffffffffffffffffffffffff16145b6112b8576040517f08c379a00000000000000000000000000000000000000000000000000000000081526004016112af9061244c565b60405180910390fd5b8060000160009054906101000a900473ffffffffffffffffffffffffffffffffffffffff1673ffffffffffffffffffffffffffffffffffffffff163373ffffffffffffffffffffffffffffffffffffffff16036113315760008160010160146101000a81548160ff0219169083151502179055506114c8565b8060010160009054906101000a900473ffffffffffffffffffffffffffffffffffffffff1673ffffffffffffffffffffffffffffffffffffffff166108fc61139c8360000160009054906101000a900473ffffffffffffffffffffffffffffffffffffffff1661116c565b9081150290604051600060405180830381858888f193505050501580156113c7573d6000803e3d6000fd5b50600260003373ffffffffffffffffffffffffffffffffffffffff1673ffffffffffffffffffffffffffffffffffffffff168152602001908152602001600020828154811061141957611418612363565b5b906000526020600020016000905560036000838152602001908152602001600020600080820160006101000a81549073ffffffffffffffffffffffffffffffffffffffff02191690556001820160006101000a81549073ffffffffffffffffffffffffffffffffffffffff02191690556001820160146101000a81549060ff021916905560028201600090556003820160006114b59190611588565b6004820160009055600582016000905550505b817f83db11557caa3518e394ee3589033b042b4f03f0ed0495a829208e71bfa37f0560405160405180910390a25050565b600081600001549050919050565b6001816000016000828254019250508190555050565b6040518060e00160405280600073ffffffffffffffffffffffffffffffffffffffff168152602001600073ffffffffffffffffffffffffffffffffffffffff168152602001600015158152602001600081526020016060815260200160008152602001600081525090565b50805461159490611c75565b6000825580601f106115a657506115c5565b601f0160209004906000526020600020908101906115c491906115c8565b5b50565b5b808211156115e15760008160009055506001016115c9565b5090565b6000604051905090565b600080fd5b600080fd5b6000819050919050565b61160c816115f9565b811461161757600080fd5b50565b60008135905061162981611603565b92915050565b600060208284031215611645576116446115ef565b5b60006116538482850161161a565b91505092915050565b600073ffffffffffffffffffffffffffffffffffffffff82169050919050565b60006116878261165c565b9050919050565b6116978161167c565b82525050565b60008115159050919050565b6116b28161169d565b82525050565b6116c1816115f9565b82525050565b600081519050919050565b600082825260208201905092915050565b60005b838110156117015780820151818401526020810190506116e6565b60008484015250505050565b6000601f19601f8301169050919050565b6000611729826116c7565b61173381856116d2565b93506117438185602086016116e3565b61174c8161170d565b840191505092915050565b600060e08201905061176c600083018a61168e565b611779602083018961168e565b61178660408301886116a9565b61179360608301876116b8565b81810360808301526117a5818661171e565b90506117b460a08301856116b8565b6117c160c08301846116b8565b98975050505050505050565b6117d68161167c565b81146117e157600080fd5b50565b6000813590506117f3816117cd565b92915050565b60006020828403121561180f5761180e6115ef565b5b600061181d848285016117e4565b91505092915050565b600081519050919050565b600082825260208201905092915050565b6000819050602082019050919050565b61185b816115f9565b82525050565b600061186d8383611852565b60208301905092915050565b6000602082019050919050565b600061189182611826565b61189b8185611831565b93506118a683611842565b8060005b838110156118d75781516118be8882611861565b97506118c983611879565b9250506001810190506118aa565b5085935050505092915050565b600060208201905081810360008301526118fe8184611886565b905092915050565b61190f8161167c565b82525050565b61191e8161169d565b82525050565b600082825260208201905092915050565b6000611940826116c7565b61194a8185611924565b935061195a8185602086016116e3565b6119638161170d565b840191505092915050565b600060e0830160008301516119866000860182611906565b5060208301516119996020860182611906565b5060408301516119ac6040860182611915565b5060608301516119bf6060860182611852565b50608083015184820360808601526119d78282611935565b91505060a08301516119ec60a0860182611852565b5060c08301516119ff60c0860182611852565b508091505092915050565b60006020820190508181036000830152611a24818461196e565b905092915050565b6000602082019050611a4160008301846116b8565b92915050565b600080fd5b600080fd5b7f4e487b7100000000000000000000000000000000000000000000000000000000600052604160045260246000fd5b611a898261170d565b810181811067ffffffffffffffff82111715611aa857611aa7611a51565b5b80604052505050565b6000611abb6115e5565b9050611ac78282611a80565b919050565b600067ffffffffffffffff821115611ae757611ae6611a51565b5b611af08261170d565b9050602081019050919050565b82818337600083830152505050565b6000611b1f611b1a84611acc565b611ab1565b905082815260208101848484011115611b3b57611b3a611a4c565b5b611b46848285611afd565b509392505050565b600082601f830112611b6357611b62611a47565b5b8135611b73848260208601611b0c565b91505092915050565b600080600060608486031215611b9557611b946115ef565b5b6000611ba3868287016117e4565b9350506020611bb48682870161161a565b925050604084013567ffffffffffffffff811115611bd557611bd46115f4565b5b611be186828701611b4e565b9150509250925092565b6000602082019050611c0060008301846116a9565b92915050565b60008060408385031215611c1d57611c1c6115ef565b5b6000611c2b858286016117e4565b9250506020611c3c8582860161161a565b9150509250929050565b7f4e487b7100000000000000000000000000000000000000000000000000000000600052602260045260246000fd5b60006002820490506001821680611c8d57607f821691505b602082108103611ca057611c9f611c46565b5b50919050565b7f43416e7420736574207a65726f20616d6f756e74000000000000000000000000600082015250565b6000611cdc6014836116d2565b9150611ce782611ca6565b602082019050919050565b60006020820190508181036000830152611d0b81611ccf565b9050919050565b7f596f7520617265206e6f7420746865206d656e746f72206f662074686973207360008201527f657373696f6e0000000000000000000000000000000000000000000000000000602082015250565b6000611d6e6026836116d2565b9150611d7982611d12565b604082019050919050565b60006020820190508181036000830152611d9d81611d61565b9050919050565b7f416c726561647920616363657074656400000000000000000000000000000000600082015250565b6000611dda6010836116d2565b9150611de582611da4565b602082019050919050565b60006020820190508181036000830152611e0981611dcd565b9050919050565b7f4e487b7100000000000000000000000000000000000000000000000000000000600052601160045260246000fd5b6000611e4a826115f9565b9150611e55836115f9565b9250828201905080821115611e6d57611e6c611e10565b5b92915050565b7f54696d656672616d6520697320616c72656164792074616b656e000000000000600082015250565b6000611ea9601a836116d2565b9150611eb482611e73565b602082019050919050565b60006020820190508181036000830152611ed881611e9c565b9050919050565b7f496e76616c6964204d656e746f72000000000000000000000000000000000000600082015250565b6000611f15600e836116d2565b9150611f2082611edf565b602082019050919050565b60006020820190508181036000830152611f4481611f08565b9050919050565b7f43616e7420706179206d656e746f720000000000000000000000000000000000600082015250565b6000611f81600f836116d2565b9150611f8c82611f4b565b602082019050919050565b60006020820190508181036000830152611fb081611f74565b9050919050565b60008190508160005260206000209050919050565b60006020601f8301049050919050565b600082821b905092915050565b6000600883026120197fffffffffffffffffffffffffffffffffffffffffffffffffffffffffffffffff82611fdc565b6120238683611fdc565b95508019841693508086168417925050509392505050565b6000819050919050565b600061206061205b612056846115f9565b61203b565b6115f9565b9050919050565b6000819050919050565b61207a83612045565b61208e61208682612067565b848454611fe9565b825550505050565b600090565b6120a3612096565b6120ae818484612071565b505050565b5b818110156120d2576120c760008261209b565b6001810190506120b4565b5050565b601f821115612117576120e881611fb7565b6120f184611fcc565b81016020851015612100578190505b61211461210c85611fcc565b8301826120b3565b50505b505050565b600082821c905092915050565b600061213a6000198460080261211c565b1980831691505092915050565b60006121538383612129565b9150826002028217905092915050565b61216c826116c7565b67ffffffffffffffff81111561218557612184611a51565b5b61218f8254611c75565b61219a8282856120d6565b600060209050601f8311600181146121cd57600084156121bb578287015190505b6121c58582612147565b86555061222d565b601f1984166121db86611fb7565b60005b82811015612203578489015182556001820191506020850194506020810190506121de565b86831015612220578489015161221c601f891682612129565b8355505b6001600288020188555050505b505050505050565b60008154905061224481611c75565b9050919050565b818103612259575050612331565b61226282612235565b67ffffffffffffffff81111561227b5761227a611a51565b5b6122858254611c75565b6122908282856120d6565b6000601f8311600181146122bf57600084156122ad578287015490505b6122b78582612147565b86555061232a565b601f1984166122cd87611fb7565b96506122d886611fb7565b60005b82811015612300578489015482556001820191506001850194506020810190506122db565b8683101561231d5784890154612319601f891682612129565b8355505b6001600288020188555050505b5050505050505b565b600060408201905061234860008301856116b8565b818103602083015261235a818461171e565b90509392505050565b7f4e487b7100000000000000000000000000000000000000000000000000000000600052603260045260246000fd5b600061239d826115f9565b91507fffffffffffffffffffffffffffffffffffffffffffffffffffffffffffffffff82036123cf576123ce611e10565b5b600182019050919050565b7f596f7520617265206e6f7420617574686f72697a656420746f206d616b65206360008201527f68616e67657320746f20746869732073657373696f6e00000000000000000000602082015250565b60006124366036836116d2565b9150612441826123da565b604082019050919050565b6000602082019050818103600083015261246581612429565b905091905056fea264697066735822122014a51e2a928a35b85c9d87541a519a4d5dc90005a40b728f689741fbf2728a8264736f6c63430008130033",
  "immutableReferences": {},
  "source": "// SPDX-License-Identifier: MIT\n\npragma solidity ^0.8.17;\n\nimport \"@openzeppelin/contracts/utils/Counters.sol\";\n\ncontract Sessions {\n    using Counters for Counters.Counter;\n\n    Counters.Counter private _sessionID;\n\n    struct Session {\n        address mentor;\n        address student;\n        bool isAccepted;\n        uint256 timeStamp;\n        string meetingLink;\n        uint256 paymentFee;\n        uint256 sessionId;\n    }\n\n    event SessionScheduled(\n        address indexed mentor,\n        address indexed student,\n        uint256 fee,\n        string meetingLink,\n        uint256 indexed id\n    );\n    event SessionCancelled(uint256 indexed sessionId);\n    event SessionAccepted(uint256 indexed sessionId);\n\n    Session[] public allSessions;\n    //mapping an address to all Id of it sessions\n    mapping(address => uint[]) public addressToSessions;\n    mapping(uint256 => Session) public uintToSession;\n\n    mapping(address => uint) public sessionsAttendedCount;\n    mapping(address => uint) public sessionsMentoredCount;\n\n    mapping(address => uint) mentorsPrice;\n\n    modifier isTimeFrameAlreadyTaken(uint256 _timeStamp) {\n        require(!isTimeFrameTaken(_timeStamp), \"Timeframe is already taken\");\n        _;\n    }\n\n    function isTimeFrameTaken(uint256 _timeStamp) public view returns (bool) {\n        for (uint256 i = 0; i < allSessions.length; i++) {\n            if (allSessions[i].timeStamp == _timeStamp) {\n                return true;\n            }\n        }\n        return false;\n    }\n\n    function scheduleASession(\n        address _mentor,\n        uint256 _timestamp,\n        string memory _meetingLink\n    ) external payable isTimeFrameAlreadyTaken(_timestamp) {\n        require(fetchMentorsPrice(_mentor) != 0, \"Invalid Mentor\");\n        require(msg.value >= fetchMentorsPrice(_mentor), \"Cant pay mentor\");\n\n        uint256 id = _sessionID.current();\n        Session storage newSession = uintToSession[id];\n        newSession.mentor = _mentor;\n        newSession.student = msg.sender;\n        newSession.meetingLink = _meetingLink;\n        newSession.timeStamp = _timestamp;\n        newSession.sessionId = id;\n        allSessions.push(newSession);\n        addressToSessions[msg.sender].push(id);\n        uintToSession[id] = newSession;\n        _sessionID.increment();\n\n        emit SessionScheduled(\n            _mentor,\n            msg.sender,\n            newSession.paymentFee,\n            _meetingLink,\n            id\n        );\n    }\n\n    function cancelSession(uint256 _sessionId) external {\n        Session storage session = uintToSession[_sessionId];\n        require(\n            session.student == msg.sender || session.mentor == msg.sender,\n            \"You are not authorized to make changes to this session\"\n        );\n        if (msg.sender == session.mentor) {\n            session.isAccepted = false;\n            // addressToSessions[session.student].isAccepted = true;\n        } else {\n            payable(session.student).transfer(\n                fetchMentorsPrice(session.mentor)\n            );\n            delete addressToSessions[msg.sender][_sessionId];\n            delete uintToSession[_sessionId];\n        }\n\n        emit SessionCancelled(_sessionId);\n    }\n\n    function acceptSession(uint256 _sessionId) external {\n        Session storage session = uintToSession[_sessionId];\n        require(\n            session.mentor == msg.sender,\n            \"You are not the mentor of this session\"\n        );\n        require(session.isAccepted == false, \"Already accepted\");\n        session.isAccepted = true;\n        payable(session.mentor).transfer(fetchMentorsPrice(session.mentor));\n        sessionsMentoredCount[session.mentor] += 1;\n        sessionsAttendedCount[session.student] += 1;\n\n        // addressToSessions[session.student].isAccepted = true;\n        emit SessionAccepted(_sessionId);\n    }\n\n    function registerMentorPrice(uint _amount) external {\n        require(_amount != 0, \"CAnt set zero amount\");\n        mentorsPrice[msg.sender] = _amount;\n    }\n\n    function fetchMentorsPrice(address _addr) public view returns (uint) {\n        return mentorsPrice[_addr];\n    }\n\n    function getUserSessions(\n        address _userAddress\n    ) external view returns (uint[] memory) {\n        return addressToSessions[_userAddress];\n    }\n\n    function getSessionDetails(\n        uint _sessionId\n    ) external view returns (Session memory) {\n        return uintToSession[_sessionId];\n    }\n}\n",
  "sourcePath": "/home/otaiki/Documents/smart-contract/contract-verbal/contracts/Session.sol",
  "compiler": {
    "name": "solc",
    "version": "0.8.19+commit.7dd6d404.Emscripten.clang"
  },
  "schemaVersion": "3.4.15",
  "updatedAt": "2023-08-21T22:00:13.853Z",
  "networkType": "ethereum",
  "devdoc": {
    "kind": "dev",
    "methods": {},
    "version": 1
  },
  "userdoc": {
    "kind": "user",
    "methods": {},
    "version": 1
  }
}